{
  "address": "0xf8454f52f3ecA6c1a9E5Da0119173832F208ab18",
  "abi": [
    {
      "inputs": [
        {
          "internalType": "contract GovernanceERC20",
          "name": "_governanceERC20Base",
          "type": "address"
        },
        {
          "internalType": "contract GovernanceWrappedERC20",
          "name": "_governanceWrappedERC20Base",
          "type": "address"
        }
      ],
      "stateMutability": "nonpayable",
      "type": "constructor"
    },
    {
      "inputs": [
        {
          "internalType": "address",
          "name": "token",
          "type": "address"
        }
      ],
      "name": "TokenNotContract",
      "type": "error"
    },
    {
      "inputs": [
        {
          "internalType": "address",
          "name": "token",
          "type": "address"
        }
      ],
      "name": "TokenNotERC20",
      "type": "error"
    },
    {
      "inputs": [
        {
          "internalType": "uint256",
          "name": "length",
          "type": "uint256"
        }
      ],
      "name": "WrongHelpersArrayLength",
      "type": "error"
    },
    {
      "inputs": [],
      "name": "governanceERC20Base",
      "outputs": [
        {
          "internalType": "address",
          "name": "",
          "type": "address"
        }
      ],
      "stateMutability": "view",
      "type": "function"
    },
    {
      "inputs": [],
      "name": "governanceWrappedERC20Base",
      "outputs": [
        {
          "internalType": "address",
          "name": "",
          "type": "address"
        }
      ],
      "stateMutability": "view",
      "type": "function"
    },
    {
      "inputs": [],
      "name": "implementation",
      "outputs": [
        {
          "internalType": "address",
          "name": "",
          "type": "address"
        }
      ],
      "stateMutability": "view",
      "type": "function"
    },
    {
      "inputs": [
        {
          "internalType": "address",
          "name": "_dao",
          "type": "address"
        },
        {
          "internalType": "bytes",
          "name": "_data",
          "type": "bytes"
        }
      ],
      "name": "prepareInstallation",
      "outputs": [
        {
          "internalType": "address",
          "name": "plugin",
          "type": "address"
        },
        {
          "components": [
            {
              "internalType": "address[]",
              "name": "helpers",
              "type": "address[]"
            },
            {
              "components": [
                {
                  "internalType": "enum PermissionLib.Operation",
                  "name": "operation",
                  "type": "uint8"
                },
                {
                  "internalType": "address",
                  "name": "where",
                  "type": "address"
                },
                {
                  "internalType": "address",
                  "name": "who",
                  "type": "address"
                },
                {
                  "internalType": "address",
                  "name": "condition",
                  "type": "address"
                },
                {
                  "internalType": "bytes32",
                  "name": "permissionId",
                  "type": "bytes32"
                }
              ],
              "internalType": "struct PermissionLib.MultiTargetPermission[]",
              "name": "permissions",
              "type": "tuple[]"
            }
          ],
          "internalType": "struct IPluginSetup.PreparedSetupData",
          "name": "preparedSetupData",
          "type": "tuple"
        }
      ],
      "stateMutability": "nonpayable",
      "type": "function"
    },
    {
      "inputs": [
        {
          "internalType": "address",
          "name": "_dao",
          "type": "address"
        },
        {
          "components": [
            {
              "internalType": "address",
              "name": "plugin",
              "type": "address"
            },
            {
              "internalType": "address[]",
              "name": "currentHelpers",
              "type": "address[]"
            },
            {
              "internalType": "bytes",
              "name": "data",
              "type": "bytes"
            }
          ],
          "internalType": "struct IPluginSetup.SetupPayload",
          "name": "_payload",
          "type": "tuple"
        }
      ],
      "name": "prepareUninstallation",
      "outputs": [
        {
          "components": [
            {
              "internalType": "enum PermissionLib.Operation",
              "name": "operation",
              "type": "uint8"
            },
            {
              "internalType": "address",
              "name": "where",
              "type": "address"
            },
            {
              "internalType": "address",
              "name": "who",
              "type": "address"
            },
            {
              "internalType": "address",
              "name": "condition",
              "type": "address"
            },
            {
              "internalType": "bytes32",
              "name": "permissionId",
              "type": "bytes32"
            }
          ],
          "internalType": "struct PermissionLib.MultiTargetPermission[]",
          "name": "permissions",
          "type": "tuple[]"
        }
      ],
      "stateMutability": "view",
      "type": "function"
    },
    {
      "inputs": [
        {
          "internalType": "address",
          "name": "_dao",
          "type": "address"
        },
        {
          "internalType": "uint16",
          "name": "_currentBuild",
          "type": "uint16"
        },
        {
          "components": [
            {
              "internalType": "address",
              "name": "plugin",
              "type": "address"
            },
            {
              "internalType": "address[]",
              "name": "currentHelpers",
              "type": "address[]"
            },
            {
              "internalType": "bytes",
              "name": "data",
              "type": "bytes"
            }
          ],
          "internalType": "struct IPluginSetup.SetupPayload",
          "name": "_payload",
          "type": "tuple"
        }
      ],
      "name": "prepareUpdate",
      "outputs": [
        {
          "internalType": "bytes",
          "name": "initData",
          "type": "bytes"
        },
        {
          "components": [
            {
              "internalType": "address[]",
              "name": "helpers",
              "type": "address[]"
            },
            {
              "components": [
                {
                  "internalType": "enum PermissionLib.Operation",
                  "name": "operation",
                  "type": "uint8"
                },
                {
                  "internalType": "address",
                  "name": "where",
                  "type": "address"
                },
                {
                  "internalType": "address",
                  "name": "who",
                  "type": "address"
                },
                {
                  "internalType": "address",
                  "name": "condition",
                  "type": "address"
                },
                {
                  "internalType": "bytes32",
                  "name": "permissionId",
                  "type": "bytes32"
                }
              ],
              "internalType": "struct PermissionLib.MultiTargetPermission[]",
              "name": "permissions",
              "type": "tuple[]"
            }
          ],
          "internalType": "struct IPluginSetup.PreparedSetupData",
          "name": "preparedSetupData",
          "type": "tuple"
        }
      ],
      "stateMutability": "nonpayable",
      "type": "function"
    },
    {
      "inputs": [
        {
          "internalType": "bytes4",
          "name": "_interfaceId",
          "type": "bytes4"
        }
      ],
      "name": "supportsInterface",
      "outputs": [
        {
          "internalType": "bool",
          "name": "",
          "type": "bool"
        }
      ],
      "stateMutability": "view",
      "type": "function"
    }
  ],
  "transactionHash": "0xb2e1bdca4bec8d4d1013216473c8bf260c9a7741f05d1a1cd575225a00f6ab98",
  "args": [
    "0xf868169bde323f45005e476287f4c76411a610f8",
    "0x073b8528bcfbb2454c8fa792558aa4a1e64c613b"
  ],
  "numDeployments": 3,
  "solcInputHash": "b0e20d5d39b114891cc9efbc3aed3959",
  "bytecode": "0x60e06040523480156200001157600080fd5b50604051620085e3380380620085e38339810160408190526200003491620000af565b6001600160a01b0380831660a052811660c052604051620000559062000088565b604051809103906000f08015801562000072573d6000803e3d6000fd5b506001600160a01b031660805250620000ee9050565b615c6b806200297883390190565b6001600160a01b0381168114620000ac57600080fd5b50565b60008060408385031215620000c357600080fd5b8251620000d08162000096565b6020840151909250620000e38162000096565b809150509250929050565b60805160a05160c05161281d6200015b600039600081816101730152610a2b01526000818160be0152610ada01526000818160fb015281816103d2015281816104cc015281816105c601528181610bb901528181610cfe01528181610de80152610ed2015261281d6000f3fe60806040523480156200001157600080fd5b5060043610620000875760003560e01c80639cb0a12411620000625780639cb0a1241462000120578063a8a9c29e1462000146578063e89b6b91146200016d578063f10832f1146200019557600080fd5b806301ffc9a7146200008c578063599cb1a614620000b85780635c60da1b14620000f9575b600080fd5b620000a36200009d3660046200156e565b620001bc565b60405190151581526020015b60405180910390f35b620000e07f000000000000000000000000000000000000000000000000000000000000000081565b6040516001600160a01b039091168152602001620000af565b7f0000000000000000000000000000000000000000000000000000000000000000620000e0565b6200013762000131366004620015cb565b620001f4565b604051620000af919062001686565b6200015d62000157366004620016e6565b62000827565b604051620000af92919062001852565b620000e07f000000000000000000000000000000000000000000000000000000000000000081565b620001ac620001a636600462001884565b6200084f565b604051620000af9291906200190e565b60006001600160e01b0319821663099718b560e41b1480620001ee57506301ffc9a760e01b6001600160e01b03198316145b92915050565b6060600062000207602084018462001932565b915050600181146200023457604051633c53187f60e21b8152600481018290526024015b60405180910390fd5b600062000245602085018562001932565b600081811062000259576200025962001986565b90506020020160208101906200027091906200199c565b905060006200027f826200112e565b905060008160008151811062000299576200029962001986565b60200260200101518015620002c8575081600181518110620002bf57620002bf62001986565b60200260200101515b8015620002f0575081600281518110620002e657620002e662001986565b6020026020010151155b9050806200030057600462000303565b60055b60ff1667ffffffffffffffff811115620003215762000321620019ba565b6040519080825280602002602001820160405280156200037c57816020015b6040805160a081018252600080825260208083018290529282018190526060820181905260808201528252600019909201910181620003405790505b506040805160a0810190915260018152909550602080820190620003a3908901896200199c565b6001600160a01b03168152602001886001600160a01b0316815260200160006001600160a01b031681526020017f00000000000000000000000000000000000000000000000000000000000000006001600160a01b031663e2c801b66040518163ffffffff1660e01b8152600401602060405180830381865afa1580156200042f573d6000803e3d6000fd5b505050506040513d601f19601f82011682018060405250810190620004559190620019d0565b815250856000815181106200046e576200046e62001986565b60209081029190910101526040805160a0810190915280600181526020908101906200049d908901896200199c565b6001600160a01b03168152602001886001600160a01b0316815260200160006001600160a01b031681526020017f00000000000000000000000000000000000000000000000000000000000000006001600160a01b031663e91ddf2f6040518163ffffffff1660e01b8152600401602060405180830381865afa15801562000529573d6000803e3d6000fd5b505050506040513d601f19601f820116820180604052508101906200054f9190620019d0565b8152508560018151811062000568576200056862001986565b60209081029190910101526040805160a08101909152806001815260209081019062000597908901896200199c565b6001600160a01b03168152602001886001600160a01b0316815260200160006001600160a01b031681526020017f00000000000000000000000000000000000000000000000000000000000000006001600160a01b031663c9c4bfca6040518163ffffffff1660e01b8152600401602060405180830381865afa15801562000623573d6000803e3d6000fd5b505050506040513d601f19601f82011682018060405250810190620006499190620019d0565b8152508560028151811062000662576200066262001986565b60209081029190910101526040805160a081019091528060018152602001886001600160a01b03168152602001876000016020810190620006a491906200199c565b6001600160a01b0316815260200160006001600160a01b03168152602001886001600160a01b0316630729d0546040518163ffffffff1660e01b8152600401602060405180830381865afa15801562000701573d6000803e3d6000fd5b505050506040513d601f19601f82011682018060405250810190620007279190620019d0565b8152508560038151811062000740576200074062001986565b602002602001018190525080156200081d576040805160a081019091528060018152602001846001600160a01b03168152602001886001600160a01b0316815260200160006001600160a01b03168152602001846001600160a01b031663b2d2989c6040518163ffffffff1660e01b8152600401602060405180830381865afa158015620007d2573d6000803e3d6000fd5b505050506040513d601f19601f82011682018060405250810190620007f89190620019d0565b8152508560048151811062000811576200081162001986565b60200260200101819052505b5050505092915050565b606062000847604051806040016040528060608152602001606081525090565b935093915050565b60006200086f604051806040016040528060608152602001606081525090565b6000808080620008828789018962001d39565b8151604080516001808252818301909252959950939750919550935091600091602080830190803683370190505090506001600160a01b0382161562000ad4576001600160a01b0382163b620008f7576040516318aca2db60e01b81526001600160a01b03831660048201526024016200022b565b620009028262001227565b6200092c5760405163fa8925f160e01b81526001600160a01b03831660048201526024016200022b565b600062000939836200112e565b90508060008151811062000951576200095162001986565b60200260200101511580156200098257508060018151811062000978576200097862001986565b6020026020010151155b8015620009aa575080600281518110620009a057620009a062001986565b6020026020010151155b8062000a1f575080600081518110620009c757620009c762001986565b60200260200101518015620009f7575080600181518110620009ed57620009ed62001986565b6020026020010151155b801562000a1f57508060028151811062000a155762000a1562001986565b6020026020010151155b1562000acd5762000a597f00000000000000000000000000000000000000000000000000000000000000006001600160a01b0316620012da565b855160208701516040808901519051639065714760e01b81529396506001600160a01b0387169363906571479362000a98939092909160040162001eb9565b600060405180830381600087803b15801562000ab357600080fd5b505af115801562000ac8573d6000803e3d6000fd5b505050505b5062000b7b565b62000b087f00000000000000000000000000000000000000000000000000000000000000006001600160a01b0316620012da565b9150816001600160a01b031663dab27fa98c86602001518760400151876040518563ffffffff1660e01b815260040162000b46949392919062001efb565b600060405180830381600087803b15801562000b6157600080fd5b505af115801562000b76573d6000803e3d6000fd5b505050505b818160008151811062000b925762000b9262001986565b6001600160a01b039283166020918202929092010152821660c086015260405162000c1d907f00000000000000000000000000000000000000000000000000000000000000009062000bed908e908a908a9060240162001fa3565b60408051601f198184030181529190526020810180516001600160e01b031663a727afa360e01b1790526200137d565b84519098506000906001600160a01b031662000c3b57600562000c3e565b60045b60ff1667ffffffffffffffff81111562000c5c5762000c5c620019ba565b60405190808252806020026020018201604052801562000cb757816020015b6040805160a08101825260008082526020808301829052928201819052606082018190526080820152825260001990920191018162000c7b5790505b506040805160a0810190915290915080600081526020018a6001600160a01b031681526020018d6001600160a01b0316815260200160006001600160a01b031681526020017f00000000000000000000000000000000000000000000000000000000000000006001600160a01b031663e2c801b66040518163ffffffff1660e01b8152600401602060405180830381865afa15801562000d5b573d6000803e3d6000fd5b505050506040513d601f19601f8201168201806040525081019062000d819190620019d0565b8152508160008151811062000d9a5762000d9a62001986565b60209081029190910101526040805160a0810190915280600081526020018a6001600160a01b031681526020018d6001600160a01b0316815260200160006001600160a01b031681526020017f00000000000000000000000000000000000000000000000000000000000000006001600160a01b031663e91ddf2f6040518163ffffffff1660e01b8152600401602060405180830381865afa15801562000e45573d6000803e3d6000fd5b505050506040513d601f19601f8201168201806040525081019062000e6b9190620019d0565b8152508160018151811062000e845762000e8462001986565b60209081029190910101526040805160a0810190915280600081526020018a6001600160a01b031681526020018d6001600160a01b0316815260200160006001600160a01b031681526020017f00000000000000000000000000000000000000000000000000000000000000006001600160a01b031663c9c4bfca6040518163ffffffff1660e01b8152600401602060405180830381865afa15801562000f2f573d6000803e3d6000fd5b505050506040513d601f19601f8201168201806040525081019062000f559190620019d0565b8152508160028151811062000f6e5762000f6e62001986565b60209081029190910101526040805160a0810190915280600081526020018d6001600160a01b031681526020018a6001600160a01b0316815260200160006001600160a01b031681526020018d6001600160a01b0316630729d0546040518163ffffffff1660e01b8152600401602060405180830381865afa15801562000ff9573d6000803e3d6000fd5b505050506040513d601f19601f820116820180604052508101906200101f9190620019d0565b8152508160038151811062001038576200103862001986565b602090810291909101015284516001600160a01b031662001116576000836001600160a01b031663b2d2989c6040518163ffffffff1660e01b8152600401602060405180830381865afa15801562001094573d6000803e3d6000fd5b505050506040513d601f19601f82011682018060405250810190620010ba9190620019d0565b6040805160a0810190915290915080600081526001600160a01b0380871660208301528f1660408201526000606082015260800182905282518390600490811062001109576200110962001986565b6020026020010181905250505b90875260208701525094989397509295505050505050565b60408051600380825260808201909252606091600091906020820184803683370190505090506336372b0760e01b8160008151811062001172576200117262001986565b60200260200101906001600160e01b03191690816001600160e01b03191681525050637487d9fb60e11b81600181518110620011b257620011b262001986565b60200260200101906001600160e01b03191690816001600160e01b0319168152505063078984cd60e11b81600281518110620011f257620011f262001986565b6001600160e01b031990921660209283029190910190910152620012206001600160a01b038416826200138b565b9392505050565b604051306024820152600090819081906001600160a01b0385169060440160408051601f198184030181529181526020820180516001600160e01b03166370a0823160e01b179052516200127c9190620020a8565b600060405180830381855afa9150503d8060008114620012b9576040519150601f19603f3d011682016040523d82523d6000602084013e620012be565b606091505b5091509150818015620012d2575080516020145b949350505050565b6000763d602d80600a3d3981f3363d3d373d3d3d363d730000008260601b60e81c176000526e5af43d82803e903d91602b57fd5bf38260781b17602052603760096000f090506001600160a01b038116620013785760405162461bcd60e51b815260206004820152601660248201527f455243313136373a20637265617465206661696c65640000000000000000000060448201526064016200022b565b919050565b600062001220838362001461565b60606000825167ffffffffffffffff811115620013ac57620013ac620019ba565b604051908082528060200260200182016040528015620013d6578160200160208202803683370190505b509050620013e4846200149d565b15620012205760005b835181101562001459576200141f8585838151811062001411576200141162001986565b6020026020010151620014d5565b82828151811062001434576200143462001986565b91151560209283029190910190910152806200145081620020c6565b915050620013ed565b509392505050565b60008282604051620014739062001560565b62001480929190620020ee565b604051809103906000f08015801562001459573d6000803e3d6000fd5b6000620014b2826301ffc9a760e01b620014d5565b8015620001ee5750620014ce826001600160e01b0319620014d5565b1592915050565b604080516001600160e01b03198316602480830191909152825180830390910181526044909101909152602080820180516001600160e01b03166301ffc9a760e01b178152825160009392849283928392918391908a617530fa92503d9150600051905082801562001548575060208210155b8015620015555750600081115b979650505050505050565b6106fe806200211383390190565b6000602082840312156200158157600080fd5b81356001600160e01b0319811681146200122057600080fd5b80356001600160a01b03811681146200137857600080fd5b600060608284031215620015c557600080fd5b50919050565b60008060408385031215620015df57600080fd5b620015ea836200159a565b9150602083013567ffffffffffffffff8111156200160757600080fd5b6200161585828601620015b2565b9150509250929050565b60008151600381106200164257634e487b7160e01b600052602160045260246000fd5b8352506020818101516001600160a01b0390811691840191909152604080830151821690840152606080830151909116908301526080908101519082015260a00190565b6020808252825182820181905260009190848201906040850190845b81811015620016c757620016b88385516200161f565b938501939250600101620016a2565b50909695505050505050565b803561ffff811681146200137857600080fd5b600080600060608486031215620016fc57600080fd5b62001707846200159a565b92506200171760208501620016d3565b9150604084013567ffffffffffffffff8111156200173457600080fd5b6200174286828701620015b2565b9150509250925092565b60005b83811015620017695781810151838201526020016200174f565b50506000910152565b600081518084526200178c8160208601602086016200174c565b601f01601f19169290920160200192915050565b600081518084526020808501945080840160005b83811015620017db5781516001600160a01b031687529582019590820190600101620017b4565b509495945050505050565b6000815160408452620017fd6040850182620017a0565b60208481015186830387830152805180845290820193509091600091908301905b808310156200184757620018348286516200161f565b915083850194506001830192506200181e565b509695505050505050565b60408152600062001867604083018562001772565b82810360208401526200187b8185620017e6565b95945050505050565b6000806000604084860312156200189a57600080fd5b620018a5846200159a565b9250602084013567ffffffffffffffff80821115620018c357600080fd5b818601915086601f830112620018d857600080fd5b813581811115620018e857600080fd5b876020828501011115620018fb57600080fd5b6020830194508093505050509250925092565b6001600160a01b0383168152604060208201526000620012d26040830184620017e6565b6000808335601e198436030181126200194a57600080fd5b83018035915067ffffffffffffffff8211156200196657600080fd5b6020019150600581901b36038213156200197f57600080fd5b9250929050565b634e487b7160e01b600052603260045260246000fd5b600060208284031215620019af57600080fd5b62001220826200159a565b634e487b7160e01b600052604160045260246000fd5b600060208284031215620019e357600080fd5b5051919050565b6040805190810167ffffffffffffffff8111828210171562001a105762001a10620019ba565b60405290565b604051610120810167ffffffffffffffff8111828210171562001a105762001a10620019ba565b604051601f8201601f1916810167ffffffffffffffff8111828210171562001a695762001a69620019ba565b604052919050565b600067ffffffffffffffff82111562001a8e5762001a8e620019ba565b5060051b60200190565b600082601f83011262001aaa57600080fd5b8135602062001ac362001abd8362001a71565b62001a3d565b82815260059290921b8401810191818101908684111562001ae357600080fd5b8286015b84811015620018475762001afb816200159a565b835291830191830162001ae7565b803580151581146200137857600080fd5b803563ffffffff811681146200137857600080fd5b803567ffffffffffffffff811681146200137857600080fd5b600082601f83011262001b5a57600080fd5b813567ffffffffffffffff81111562001b775762001b77620019ba565b62001b8c601f8201601f191660200162001a3d565b81815284602083860101111562001ba257600080fd5b816020850160208301376000918101602001919091529392505050565b60006060828403121562001bd257600080fd5b6040516060810167ffffffffffffffff828210818311171562001bf95762001bf9620019ba565b8160405282935062001c0b856200159a565b8352602085013591508082111562001c2257600080fd5b62001c308683870162001b48565b6020840152604085013591508082111562001c4a57600080fd5b5062001c598582860162001b48565b6040830152505092915050565b60006040828403121562001c7957600080fd5b62001c83620019ea565b9050813567ffffffffffffffff8082111562001c9e57600080fd5b62001cac8583860162001a98565b835260209150818401358181111562001cc457600080fd5b84019050601f8101851362001cd857600080fd5b803562001ce962001abd8262001a71565b81815260059190911b8201830190838101908783111562001d0957600080fd5b928401925b8284101562001d295783358252928401929084019062001d0e565b8085870152505050505092915050565b6000806000806080858703121562001d5057600080fd5b843567ffffffffffffffff8082111562001d6957600080fd5b62001d778883890162001a98565b9550602087013591508082111562001d8e57600080fd5b90860190610120828903121562001da457600080fd5b62001dae62001a16565b62001db98362001b09565b815262001dc960208401620016d3565b602082015262001ddc6040840162001b1a565b604082015262001def6060840162001b1a565b606082015262001e026080840162001b2f565b608082015262001e1560a0840162001b2f565b60a082015262001e2860c084016200159a565b60c082015260e083013560e0820152610100808401358381111562001e4c57600080fd5b62001e5a8b82870162001b48565b82840152505080955050604087013591508082111562001e7957600080fd5b62001e878883890162001bbf565b9350606087013591508082111562001e9e57600080fd5b5062001ead8782880162001c66565b91505092959194509250565b6001600160a01b038416815260606020820152600062001edd606083018562001772565b828103604084015262001ef1818562001772565b9695505050505050565b6001600160a01b03851681526000602060808184015262001f20608084018762001772565b838103604085015262001f34818762001772565b9050838103606085015284516040825262001f536040830182620017a0565b8684015183820393850193909352825180825290840192840191506000905b8082101562001f94578251845292840192918401916001919091019062001f72565b50919998505050505050505050565b6001600160a01b038416815260606020820152600062001fc76060830185620017a0565b8281036040840152835115158152610120602085015162001fee602084018261ffff169052565b50604085015162002007604084018263ffffffff169052565b50606085015162002020606084018263ffffffff169052565b5060808501516200203d608084018267ffffffffffffffff169052565b5060a08501516200205a60a084018267ffffffffffffffff169052565b5060c08501516200207660c08401826001600160a01b03169052565b5060e085015160e08301526101008086015182828501526200209b8385018262001772565b9998505050505050505050565b60008251620020bc8184602087016200174c565b9190910192915050565b600060018201620020e757634e487b7160e01b600052601160045260246000fd5b5060010190565b6001600160a01b0383168152604060208201526000620012d260408301846200177256fe60806040526040516106fe3803806106fe83398101604081905261002291610319565b61002e82826000610035565b5050610436565b61003e8361006b565b60008251118061004b5750805b156100665761006483836100ab60201b6100291760201c565b505b505050565b610074816100d7565b6040516001600160a01b038216907fbc7cd75a20ee27fd9adebab32041f755214dbc6bffa90cc0225b39da2e5c2d3b90600090a250565b60606100d083836040518060600160405280602781526020016106d7602791396101a9565b9392505050565b6100ea8161022260201b6100551760201c565b6101515760405162461bcd60e51b815260206004820152602d60248201527f455243313936373a206e657720696d706c656d656e746174696f6e206973206e60448201526c1bdd08184818dbdb9d1c9858dd609a1b60648201526084015b60405180910390fd5b806101887f360894a13ba1a3210667c828492db98dca3e2076cc3735a920a3ca505d382bbc60001b61023160201b6100641760201c565b80546001600160a01b0319166001600160a01b039290921691909117905550565b6060600080856001600160a01b0316856040516101c691906103e7565b600060405180830381855af49150503d8060008114610201576040519150601f19603f3d011682016040523d82523d6000602084013e610206565b606091505b50909250905061021886838387610234565b9695505050505050565b6001600160a01b03163b151590565b90565b606083156102a357825160000361029c576001600160a01b0385163b61029c5760405162461bcd60e51b815260206004820152601d60248201527f416464726573733a2063616c6c20746f206e6f6e2d636f6e74726163740000006044820152606401610148565b50816102ad565b6102ad83836102b5565b949350505050565b8151156102c55781518083602001fd5b8060405162461bcd60e51b81526004016101489190610403565b634e487b7160e01b600052604160045260246000fd5b60005b838110156103105781810151838201526020016102f8565b50506000910152565b6000806040838503121561032c57600080fd5b82516001600160a01b038116811461034357600080fd5b60208401519092506001600160401b038082111561036057600080fd5b818501915085601f83011261037457600080fd5b815181811115610386576103866102df565b604051601f8201601f19908116603f011681019083821181831017156103ae576103ae6102df565b816040528281528860208487010111156103c757600080fd5b6103d88360208301602088016102f5565b80955050505050509250929050565b600082516103f98184602087016102f5565b9190910192915050565b60208152600082518060208401526104228160408501602087016102f5565b601f01601f19169190910160400192915050565b610292806104456000396000f3fe60806040523661001357610011610017565b005b6100115b610027610022610067565b61009f565b565b606061004e838360405180606001604052806027815260200161025f602791396100c3565b9392505050565b6001600160a01b03163b151590565b90565b600061009a7f360894a13ba1a3210667c828492db98dca3e2076cc3735a920a3ca505d382bbc546001600160a01b031690565b905090565b3660008037600080366000845af43d6000803e8080156100be573d6000f35b3d6000fd5b6060600080856001600160a01b0316856040516100e0919061020f565b600060405180830381855af49150503d806000811461011b576040519150601f19603f3d011682016040523d82523d6000602084013e610120565b606091505b50915091506101318683838761013b565b9695505050505050565b606083156101af5782516000036101a8576001600160a01b0385163b6101a85760405162461bcd60e51b815260206004820152601d60248201527f416464726573733a2063616c6c20746f206e6f6e2d636f6e747261637400000060448201526064015b60405180910390fd5b50816101b9565b6101b983836101c1565b949350505050565b8151156101d15781518083602001fd5b8060405162461bcd60e51b815260040161019f919061022b565b60005b838110156102065781810151838201526020016101ee565b50506000910152565b600082516102218184602087016101eb565b9190910192915050565b602081526000825180602084015261024a8160408501602087016101eb565b601f01601f1916919091016040019291505056fe416464726573733a206c6f772d6c6576656c2064656c65676174652063616c6c206661696c6564a164736f6c6343000811000a416464726573733a206c6f772d6c6576656c2064656c65676174652063616c6c206661696c6564a164736f6c6343000811000a60a0604052306080523480156200001557600080fd5b506200002062000026565b620000e7565b600054610100900460ff1615620000935760405162461bcd60e51b815260206004820152602760248201527f496e697469616c697a61626c653a20636f6e747261637420697320696e697469604482015266616c697a696e6760c81b606482015260840160405180910390fd5b60005460ff90811614620000e5576000805460ff191660ff9081179091556040519081527f7f26b83ff96e1f2b6a682f133852f6798a09c465da95921460cefb38474024989060200160405180910390a15b565b608051615b4c6200011f60003960008181610c0e01528181610c9301528181610d8601528181610e0b0152610ef10152615b4c6000f3fe6080604052600436106101c25760003560e01c80636a6b2d86116100f7578063c7f758a811610095578063e2c801b611610064578063e2c801b614610523578063e91ddf2f14610557578063f794062e1461058b578063fc5084a5146105ab57600080fd5b8063c7f758a814610488578063c9c4bfca146104bb578063d0fa5a32146104ef578063da35c6641461050e57600080fd5b806386f0e4ed116100d157806386f0e4ed1461040657806398c74ade14610428578063a727afa314610448578063b1bb8d261461046857600080fd5b80636a6b2d86146103a65780636b95da93146103c65780638696552b146103e657600080fd5b80632925e59c1161016457806341de68301161013e57806341de68301461034d5780634f1ef2861461036957806352d1902d1461037c5780635c60da1b1461039157600080fd5b80632925e59c146102c15780633659cfe6146102fb5780634162169f1461031b57600080fd5b80630f525a26116101a05780630f525a261461023e57806318f9dcf01461025e5780632078d4371461028c57806327f1608d146102ac57600080fd5b806301ffc9a7146101c75780630d0d0bcd146101fc5780630d61b5191461021e575b600080fd5b3480156101d357600080fd5b506101e76101e2366004614ac2565b6105cb565b60405190151581526020015b60405180910390f35b34801561020857600080fd5b5061021c610217366004614b0a565b61062c565b005b34801561022a57600080fd5b5061021c610239366004614b3a565b61063a565b34801561024a57600080fd5b5061021c610259366004614c29565b610656565b34801561026a57600080fd5b5061027e610279366004614ece565b610660565b6040519081526020016101f3565b34801561029857600080fd5b5061021c6102a7366004615010565b610b9c565b3480156102b857600080fd5b5061027e610be9565b3480156102cd57600080fd5b5061019154600160401b90046001600160401b03165b6040516001600160401b0390911681526020016101f3565b34801561030757600080fd5b5061021c610316366004615051565b610c04565b34801561032757600080fd5b5060c9546001600160a01b03165b6040516001600160a01b0390911681526020016101f3565b34801561035957600080fd5b5060006040516101f3919061506e565b61021c610377366004615096565b610d7c565b34801561038857600080fd5b5061027e610ee4565b34801561039d57600080fd5b50610335610faa565b3480156103b257600080fd5b5061027e6103c1366004614b3a565b610fe2565b3480156103d257600080fd5b506101e76103e13660046150e5565b610ff0565b3480156103f257600080fd5b5061021c610401366004615010565b611347565b34801561041257600080fd5b5061041b61138a565b6040516101f3919061515a565b34801561043457600080fd5b506101e7610443366004615051565b611502565b34801561045457600080fd5b5061021c610463366004615300565b61150d565b34801561047457600080fd5b506101e761048336600461536f565b611645565b34801561049457600080fd5b506104a86104a3366004614b3a565b611672565b6040516101f39796959493929190615501565b3480156104c757600080fd5b5061027e7f821b6e3a557148015a918c89e5d092e878a69854a2d1a410635f771bd5a8a3f581565b3480156104fb57600080fd5b50610191546001600160401b03166102e3565b34801561051a57600080fd5b5061027e611a2e565b34801561052f57600080fd5b5061027e7f466d2da9531a54b43e3d2bf44c5531ee51046862cbec6aecc512537816c35efe81565b34801561056357600080fd5b5061027e7f014d0f6d145f1740f93075f6c5cea6ecd05f8fc5bd2afca7138cadea84c5d3d781565b34801561059757600080fd5b506101e76105a6366004615051565b611a3a565b3480156105b757600080fd5b5061021c6105c63660046155a6565b611a6f565b60006001600160e01b0319821663bfde735360e01b14806105fc57506001600160e01b0319821663031172f360e41b145b8061061757506001600160e01b03198216630bb5c60360e01b145b80610626575061062682611ab1565b92915050565b6106368282611ad6565b5050565b6106426123bf565b61064a61240d565b6106538161244c565b50565b6106368282612b1a565b600061066a6123bf565b61067261240d565b6040805161012081018252610193805460ff81161515835261010080820461ffff1660208501526301000000820463ffffffff9081169585019590955267010000000000000082049094166060840152600160581b81046001600160401b039081166080850152600160981b9091041660a0830152610194546001600160a01b031660c08301526101955460e0830152610196805460009484019190610717906155da565b80601f0160208091040260200160405190810160405280929190818152602001828054610743906155da565b80156107905780601f1061076557610100808354040283529160200191610790565b820191906000526020600020905b81548152906001019060200180831161077357829003601f168201915b505050505081525050905060006107a43390565b825190915080156107bb57506107b981613214565b155b156107e957604051637ea66a3960e11b81526001600160a01b03821660048201526024015b60405180910390fd5b60e08201511561091b5760c08201516040516309ab24eb60e41b81526001600160a01b0383811660048301526000921690639ab24eb090602401602060405180830381865afa158015610840573d6000803e3d6000fd5b505050506040513d601f19601f820116820180604052508101906108649190615614565b60c08401516040516370a0823160e01b81526001600160a01b038581166004830152929350600092909116906370a0823190602401602060405180830381865afa1580156108b6573d6000803e3d6000fd5b505050506040513d601f19601f820116820180604052508101906108da9190615614565b90508360e00151821080156108f257508360e0015181105b15610918578360e0015160405163240f1c8160e21b81526004016107e091815260200190565b50505b61093285602001518660400151876060015161321f565b6001600160401b0390811660608901529081166040880152166020860152608085015160000361097d578460800151604051635b2ab01360e11b81526004016107e091815260200190565b60006109876133a7565b60008181526101926020908152604091829020600181018c905590890151600382018054938b015160608c01517fffffffffffffffff00000000000000000000000000000000ffffffffffffffff909516600160401b6001600160401b03948516027fffffffffffffffff0000000000000000ffffffffffffffffffffffffffffffff1617600160801b918416919091021777ffffffffffffffffffffffffffffffffffffffffffffffff16600160c01b9290941691909102929092179091556080880151600482015560a0880151919250906005820190610a699082615673565b5060c08701516006820155610a7d436133c2565b60038201805467ffffffffffffffff19166001600160401b03929092169190911790556002810188905560005b8651811015610b365781600901878281518110610ac957610ac9615732565b602090810291909101810151825460018082018555600094855293839020825160039092020180546001600160a01b0319166001600160a01b03909216919091178155918101519282019290925560408201516002820190610b2b9082615673565b505050600101610aaa565b50826001600160a01b031689837f784842613a953948c527397436300b06839500577a2fe1e958cefafddc9f394f8a602001518b604001518c606001518c8f604051610b86959493929190615748565b60405180910390a450925050505b949350505050565b60c9547f014d0f6d145f1740f93075f6c5cea6ecd05f8fc5bd2afca7138cadea84c5d3d790610bda906001600160a01b031630335b84600036613445565b610be48383613501565b505050565b6000610bf6610160613604565b6001600160e01b0316905090565b6001600160a01b037f0000000000000000000000000000000000000000000000000000000000000000163003610c915760405162461bcd60e51b815260206004820152602c60248201527f46756e6374696f6e206d7573742062652063616c6c6564207468726f7567682060448201526b19195b1959d85d1958d85b1b60a21b60648201526084016107e0565b7f00000000000000000000000000000000000000000000000000000000000000006001600160a01b0316610cec7f360894a13ba1a3210667c828492db98dca3e2076cc3735a920a3ca505d382bbc546001600160a01b031690565b6001600160a01b031614610d575760405162461bcd60e51b815260206004820152602c60248201527f46756e6374696f6e206d7573742062652063616c6c6564207468726f7567682060448201526b6163746976652070726f787960a01b60648201526084016107e0565b610d608161364c565b6040805160008082526020820190925261065391839190613685565b6001600160a01b037f0000000000000000000000000000000000000000000000000000000000000000163003610e095760405162461bcd60e51b815260206004820152602c60248201527f46756e6374696f6e206d7573742062652063616c6c6564207468726f7567682060448201526b19195b1959d85d1958d85b1b60a21b60648201526084016107e0565b7f00000000000000000000000000000000000000000000000000000000000000006001600160a01b0316610e647f360894a13ba1a3210667c828492db98dca3e2076cc3735a920a3ca505d382bbc546001600160a01b031690565b6001600160a01b031614610ecf5760405162461bcd60e51b815260206004820152602c60248201527f46756e6374696f6e206d7573742062652063616c6c6564207468726f7567682060448201526b6163746976652070726f787960a01b60648201526084016107e0565b610ed88261364c565b61063682826001613685565b6000306001600160a01b037f00000000000000000000000000000000000000000000000000000000000000001614610f845760405162461bcd60e51b815260206004820152603860248201527f555550535570677261646561626c653a206d757374206e6f742062652063616c60448201527f6c6564207468726f7567682064656c656761746563616c6c000000000000000060648201526084016107e0565b507f360894a13ba1a3210667c828492db98dca3e2076cc3735a920a3ca505d382bbc5b90565b6000610fdd7f360894a13ba1a3210667c828492db98dca3e2076cc3735a920a3ca505d382bbc546001600160a01b031690565b905090565b600061062661016083613825565b600082815261019260209081526040808320815160e08082018452825460ff1615158252600183015482860152600283015482850152835190810184526003830180546001600160401b038082168452600160401b8204811697840197909752600160801b8104871695830195909552600160c01b9094049094166060858101919091526004830154608086015260058301805461134096939592860193929160a084019161109e906155da565b80601f01602080910402602001604051908101604052809291908181526020018280546110ca906155da565b80156111175780601f106110ec57610100808354040283529160200191611117565b820191906000526020600020905b8154815290600101906020018083116110fa57829003601f168201915b50505050508152602001600382015481525050815260200160078201805480602002602001604051908101604052809291908181526020016000905b828210156111bf576000848152602090819020830180546040805182850281018501909152818152928301828280156111ab57602002820191906000526020600020905b815481526020019060010190808311611197575b505050505081526020019060010190611153565b5050505081526020016008820180548060200260200160405190810160405280929190818152602001828054801561122057602002820191906000526020600020905b81546001600160a01b03168152600190910190602001808311611202575b5050505050815260200160098201805480602002602001604051908101604052809291908181526020016000905b82821015611332576000848152602090819020604080516060810182526003860290920180546001600160a01b03168352600181015493830193909352600283018054929392918401916112a1906155da565b80601f01602080910402602001604051908101604052809291908181526020018280546112cd906155da565b801561131a5780601f106112ef5761010080835404028352916020019161131a565b820191906000526020600020905b8154815290600101906020018083116112fd57829003601f168201915b5050505050815250508152602001906001019061124e565b5050505081525050836138d8565b9392505050565b60c9547f014d0f6d145f1740f93075f6c5cea6ecd05f8fc5bd2afca7138cadea84c5d3d790611380906001600160a01b03163033610bd1565b610be4838361393b565b604080516101208101825260008082526020820181905291810182905260608082018390526080820183905260a0820183905260c0820183905260e08201929092526101008101919091526040805161012081018252610193805460ff81161515835261010080820461ffff1660208501526301000000820463ffffffff9081169585019590955267010000000000000082049094166060840152600160581b81046001600160401b039081166080850152600160981b9091041660a0830152610194546001600160a01b031660c08301526101955460e08301526101968054929391929184019161147b906155da565b80601f01602080910402602001604051908101604052809291908181526020018280546114a7906155da565b80156114f45780601f106114c9576101008083540402835291602001916114f4565b820191906000526020600020905b8154815290600101906020018083116114d757829003601f168201915b505050505081525050905090565b600061062682613214565b600054610100900460ff161580801561152d5750600054600160ff909116105b806115475750303b158015611547575060005460ff166001145b6115b95760405162461bcd60e51b815260206004820152602e60248201527f496e697469616c697a61626c653a20636f6e747261637420697320616c72656160448201527f647920696e697469616c697a656400000000000000000000000000000000000060648201526084016107e0565b6000805460ff1916600117905580156115dc576000805461ff0019166101001790555b6115e585613a13565b6115ef848461393b565b6115f882613a87565b801561163e576000805461ff0019169055604051600181527f7f26b83ff96e1f2b6a682f133852f6798a09c465da95921460cefb38474024989060200160405180910390a15b5050505050565b6001600160a01b038216600090815261015f602052604081206116689083613825565b6001149392505050565b6040805160e08101825260008082526020820181905291810182905260608181018390526080820183905260a0820181905260c08201839052908290600085815261019260209081526040808320815160e08082018452825460ff1615158252600183015482860152600283015482850152835190810184526003830180546001600160401b038082168452600160401b8204811697840197909752600160801b8104871695830195909552600160c01b90940490941660608581019190915260048301546080860152600583018054919586958895938588019360a084019161175b906155da565b80601f0160208091040260200160405190810160405280929190818152602001828054611787906155da565b80156117d45780601f106117a9576101008083540402835291602001916117d4565b820191906000526020600020905b8154815290600101906020018083116117b757829003601f168201915b50505050508152602001600382015481525050815260200160078201805480602002602001604051908101604052809291908181526020016000905b8282101561187c5760008481526020908190208301805460408051828502810185019091528181529283018282801561186857602002820191906000526020600020905b815481526020019060010190808311611854575b505050505081526020019060010190611810565b505050508152602001600882018054806020026020016040519081016040528092919081815260200182805480156118dd57602002820191906000526020600020905b81546001600160a01b031681526001909101906020018083116118bf575b5050505050815260200160098201805480602002602001604051908101604052809291908181526020016000905b828210156119ef576000848152602090819020604080516060810182526003860290920180546001600160a01b031683526001810154938301939093526002830180549293929184019161195e906155da565b80601f016020809104026020016040519081016040528092919081815260200182805461198a906155da565b80156119d75780601f106119ac576101008083540402835291602001916119d7565b820191906000526020600020905b8154815290600101906020018083116119ba57829003601f168201915b5050505050815250508152602001906001019061190b565b50505091525050805160a0820151602083015160608401516040850151608086015160c090960151949f939e50919c509a509850919650945092505050565b6000610fdd61012d5490565b6001600160a01b038116600090815261015f60205260408120611a5c90613604565b6001600160e01b03166001149050919050565b60c9547f466d2da9531a54b43e3d2bf44c5531ee51046862cbec6aecc512537816c35efe90611aa8906001600160a01b03163033610bd1565b61063682613a87565b60006001600160e01b0319821663368d719960e21b1480610626575061062682613e69565b611ade6123bf565b611ae661240d565b33611af081613214565b611b1857604051637ea66a3960e11b81526001600160a01b03821660048201526024016107e0565b6000838152610192602052604081206007810154909103611b515780600701604051630e3d24e160e31b81526004016107e0919061578e565b6040805160e08082018352835460ff16151582526001840154602080840191909152600285015483850152835191820184526003850180546001600160401b038082168552600160401b8204811693850193909352600160801b8104831695840195909552600160c01b9094041660608281019190915260048501546080830152600585018054611e889587949386019392909160a084019190611bf4906155da565b80601f0160208091040260200160405190810160405280929190818152602001828054611c20906155da565b8015611c6d5780601f10611c4257610100808354040283529160200191611c6d565b820191906000526020600020905b815481529060010190602001808311611c5057829003601f168201915b50505050508152602001600382015481525050815260200160078201805480602002602001604051908101604052809291908181526020016000905b82821015611d1557600084815260209081902083018054604080518285028101850190915281815292830182828015611d0157602002820191906000526020600020905b815481526020019060010190808311611ced575b505050505081526020019060010190611ca9565b50505050815260200160088201805480602002602001604051908101604052809291908181526020018280548015611d7657602002820191906000526020600020905b81546001600160a01b03168152600190910190602001808311611d58575b5050505050815260200160098201805480602002602001604051908101604052809291908181526020016000905b82821015611332576000848152602090819020604080516060810182526003860290920180546001600160a01b0316835260018101549383019390935260028301805492939291840191611df7906155da565b80601f0160208091040260200160405190810160405280929190818152602001828054611e23906155da565b8015611e705780601f10611e4557610100808354040283529160200191611e70565b820191906000526020600020905b815481529060010190602001808311611e5357829003601f168201915b50505050508152505081526020019060010190611da4565b15611eb157604051633f4fdb5960e11b81526001600160a01b03831660048201526024016107e0565b61019354600882015461010090910461ffff1611611efd57600881015461019354604051631906bddf60e01b81526004810192909252610100900461ffff1660248201526044016107e0565b6101915460038201546001600160401b03600160401b90920482169116101561234d576040805160008082526020820190925290805b6008840154811015612305576000846008018281548110611f5657611f56615732565b6000918252602090912001546001600160a01b03169050611f7681613214565b80156122c257506040805160e08082018352875460ff16151582526001880154602080840191909152600289015483850152835191820184526003890180546001600160401b038082168552600160401b8204811693850193909352600160801b8104831695840195909552600160c01b90940416606082810191909152600489015460808301526005890180546122c2958b949386019392909160a084019190612020906155da565b80601f016020809104026020016040519081016040528092919081815260200182805461204c906155da565b80156120995780601f1061206e57610100808354040283529160200191612099565b820191906000526020600020905b81548152906001019060200180831161207c57829003601f168201915b50505050508152602001600382015481525050815260200160078201805480602002602001604051908101604052809291908181526020016000905b828210156121415760008481526020908190208301805460408051828502810185019091528181529283018282801561212d57602002820191906000526020600020905b815481526020019060010190808311612119575b5050505050815260200190600101906120d5565b505050508152602001600882018054806020026020016040519081016040528092919081815260200182805480156121a257602002820191906000526020600020905b81546001600160a01b03168152600190910190602001808311612184575b5050505050815260200160098201805480602002602001604051908101604052809291908181526020016000905b828210156122b4576000848152602090819020604080516060810182526003860290920180546001600160a01b0316835260018101549383019390935260028301805492939291840191612223906155da565b80601f016020809104026020016040519081016040528092919081815260200182805461224f906155da565b801561229c5780601f106122715761010080835404028352916020019161229c565b820191906000526020600020905b81548152906001019060200180831161227f57829003601f168201915b505050505081525050815260200190600101906121d0565b5050505081525050826138d8565b156122fc5780848460ff16815181106122dd576122dd615732565b6001600160a01b03909216602092830291909101909101526001909201915b50600101611f33565b50815161231b906008850190602085019061497d565b505061019154600383018054600160401b9092046001600160401b031667ffffffffffffffff19909216919091179055505b6008810180546001810182556000918252602082200180546001600160a01b0319166001600160a01b038516908117909155604051909186917fbf7dc1f4fd16c6ebda24e12c87e844c6ed685370ba1db171486350a7d57ae7659190a382156123b9576123b98461244c565b50505050565b610191546001600160401b03438116600160401b909204160361240b5761019154604051631b1cad2160e21b8152600160401b9091046001600160401b031660048201526024016107e0565b565b610191546001600160401b0343811691160361240b5761019154604051635f7f727960e01b81526001600160401b0390911660048201526024016107e0565b600081815261019260209081526040808320815160e08082018452825460ff1615158252600183015482860152600283015482850152835190810184526003830180546001600160401b038082168452600160401b8204811697840197909752600160801b8104871695830195909552600160c01b9094049094166060858101919091526004830154608086015260058301805492959394918601939260a0840191906124f8906155da565b80601f0160208091040260200160405190810160405280929190818152602001828054612524906155da565b80156125715780601f1061254657610100808354040283529160200191612571565b820191906000526020600020905b81548152906001019060200180831161255457829003601f168201915b50505050508152602001600382015481525050815260200160078201805480602002602001604051908101604052809291908181526020016000905b828210156126195760008481526020908190208301805460408051828502810185019091528181529283018282801561260557602002820191906000526020600020905b8154815260200190600101908083116125f1575b5050505050815260200190600101906125ad565b5050505081526020016008820180548060200260200160405190810160405280929190818152602001828054801561267a57602002820191906000526020600020905b81546001600160a01b0316815260019091019060200180831161265c575b5050505050815260200160098201805480602002602001604051908101604052809291908181526020016000905b8282101561278c576000848152602090819020604080516060810182526003860290920180546001600160a01b03168352600181015493830193909352600283018054929392918401916126fb906155da565b80601f0160208091040260200160405190810160405280929190818152602001828054612727906155da565b80156127745780601f1061274957610100808354040283529160200191612774565b820191906000526020600020905b81548152906001019060200180831161275757829003601f168201915b505050505081525050815260200190600101906126a8565b505050915250508051909150156127b957604051632776407360e11b8152600481018390526024016107e0565b8060800151516000036127e5578060800151604051630e3d24e160e31b81526004016107e0919061581c565b428160600151606001516001600160401b0316101561283f5760608082015160408082015191909201519151624b94ed60e01b81526001600160401b039182166004820152911660248201524260448201526064016107e0565b6101935460a08201515161010090910461ffff1611156128a35761019360000160019054906101000a900461ffff1661287c8260a0015151613eb9565b60405163b5d6b86760e01b815261ffff9283166004820152911660248201526044016107e0565b600081608001516000815181106128bc576128bc615732565b60200260200101516002815181106128d6576128d6615732565b602002602001015182608001516000815181106128f5576128f5615732565b602002602001015160018151811061290f5761290f615732565b6020026020010151836080015160008151811061292e5761292e615732565b602002602001015160008151811061294857612948615732565b602002602001015161295a9190615845565b6129649190615845565b6060830151608001516101935491925060009161298e91906301000000900463ffffffff16613f33565b9050818111156129bb57604051630e56c8f360e11b815260048101839052602481018290526044016107e0565b600083608001516000815181106129d4576129d4615732565b60200260200101516000815181106129ee576129ee615732565b602090810291909101015161019354612a1b90670100000000000000900463ffffffff16620f4240615858565b612a25919061586b565b905060008460800151600081518110612a4057612a40615732565b6020026020010151600181518110612a5a57612a5a615732565b602090810291909101015161019354612a849190670100000000000000900463ffffffff1661586b565b9050808211612ad157612a9a8560800151613faa565b61019354604051631f68fd8160e31b81526004810192909252670100000000000000900463ffffffff1660248201526044016107e0565b600086815261019260205260409020805460ff19166001179055612b10612b0060c9546001600160a01b031690565b878760c00151886040015161406d565b5050505050505050565b612b226123bf565b612b2a61240d565b33612b3481613214565b612b5c57604051637ea66a3960e11b81526001600160a01b03821660048201526024016107e0565b600083815261019260205260409020805460ff1615612b9157604051632776407360e11b8152600481018590526024016107e0565b6040805160e08082018352835460ff16151582526001840154602080840191909152600285015483850152835191820184526003850180546001600160401b038082168552600160401b8204811693850193909352600160801b8104831695840195909552600160c01b9094041660608281019190915260048501546080830152600585018054612ed59587949386019392909160a084019190612c34906155da565b80601f0160208091040260200160405190810160405280929190818152602001828054612c60906155da565b8015612cad5780601f10612c8257610100808354040283529160200191612cad565b820191906000526020600020905b815481529060010190602001808311612c9057829003601f168201915b50505050508152602001600382015481525050815260200160078201805480602002602001604051908101604052809291908181526020016000905b82821015612d5557600084815260209081902083018054604080518285028101850190915281815292830182828015612d4157602002820191906000526020600020905b815481526020019060010190808311612d2d575b505050505081526020019060010190612ce9565b50505050815260200160088201805480602002602001604051908101604052809291908181526020018280548015612db657602002820191906000526020600020905b81546001600160a01b03168152600190910190602001808311612d98575b5050505050815260200160098201805480602002602001604051908101604052809291908181526020016000905b82821015612ec8576000848152602090819020604080516060810182526003860290920180546001600160a01b0316835260018101549383019390935260028301805492939291840191612e37906155da565b80601f0160208091040260200160405190810160405280929190818152602001828054612e63906155da565b8015612eb05780601f10612e8557610100808354040283529160200191612eb0565b820191906000526020600020905b815481529060010190602001808311612e9357829003601f168201915b50505050508152505081526020019060010190612de4565b5050505081525050614123565b612f1e576003810154604051624b94ed60e01b81526001600160401b03600160801b830481166004830152600160c01b90920490911660248201524260448201526064016107e0565b82516001141580612f4b575082600081518110612f3d57612f3d615732565b602002602001015151600314155b15612f6b5782604051630e3d24e160e31b81526004016107e0919061581c565b6007810154156131585761019354600882015461010090910461ffff1611612fc157600881015461019354604051631906bddf60e01b81526004810192909252610100900461ffff1660248201526044016107e0565b80600701600081548110612fd757612fd7615732565b90600052602060002001600081548110612ff357612ff3615732565b90600052602060002001548360008151811061301157613011615732565b602002602001015160008151811061302b5761302b615732565b60200260200101511480156130af57508060070160008154811061305157613051615732565b9060005260206000200160018154811061306d5761306d615732565b90600052602060002001548360008151811061308b5761308b615732565b60200260200101516001815181106130a5576130a5615732565b6020026020010151145b801561312a5750806007016000815481106130cc576130cc615732565b906000526020600020016002815481106130e8576130e8615732565b90600052602060002001548360008151811061310657613106615732565b602002602001015160028151811061312057613120615732565b6020026020010151145b1561314a5782604051630e3d24e160e31b81526004016107e0919061581c565b6131586008820160006149de565b825161316d90600783019060208601906149fc565b50600881018054600181018255600091825260209091200180546001600160a01b0319166001600160a01b03841617905560405184907fb0441bed37ecf9efe628cbd58a2cff7c1289f751684f259fde3968a92f23107b906131d090869061581c565b60405180910390a26040516001600160a01b0383169085907fbf7dc1f4fd16c6ebda24e12c87e844c6ed685370ba1db171486350a7d57ae76590600090a350505050565b600061062682611a3a565b60008060008061322e426133c2565b9050866001600160401b031660000361324957809350613292565b869350806001600160401b0316846001600160401b03161015613292576040516335477cb960e11b81526001600160401b038083166004830152851660248201526044016107e0565b610193546000906132b390600160581b90046001600160401b031686615882565b9050866001600160401b03166000036132ce57809350613317565b869350806001600160401b0316846001600160401b031610156133175760405163229736a160e01b81526001600160401b038083166004830152851660248201526044016107e0565b6101935460009061333890600160981b90046001600160401b031686615882565b9050866001600160401b03166000036133535780935061339b565b869350806001600160401b0316846001600160401b0316101561339b5760405162e0e64960e71b81526001600160401b038083166004830152851660248201526044016107e0565b50505093509350939050565b60006133b1611a2e565b9050610fa761012d80546001019055565b60006001600160401b038211156134415760405162461bcd60e51b815260206004820152602660248201527f53616665436173743a2076616c756520646f65736e27742066697420696e203660448201527f342062697473000000000000000000000000000000000000000000000000000060648201526084016107e0565b5090565b604051637ef7c88360e11b81526001600160a01b0387169063fdef91069061347990889088908890889088906004016158a2565b602060405180830381865afa158015613496573d6000803e3d6000fd5b505050506040513d601f19601f820116820180604052508101906134ba91906158f6565b6134f957604051630cb6f8ed60e21b81526001600160a01b038088166004830152808716602483015285166044820152606481018490526084016107e0565b505050505050565b6135096123bf565b600081900361352e5760405163148007c560e31b8152600481018290526024016107e0565b600081613539610be9565b6135439190615858565b6101935490915061ffff6101009091048116908216101561359057610193546040516317b10ead60e11b815261ffff808416600483015261010090920490911660248201526044016107e0565b61359a83836141a8565b61019180546fffffffffffffffff00000000000000001916600160401b436001600160401b0316021790556040517ff19a206b69ff20c612548bba639decadefe80ed2e7bf1a6fdc18dcde91e06e09906135f79085908590615913565b60405180910390a1505050565b805460009080156136435761362c8361361e600184615858565b600091825260209091200190565b5464010000000090046001600160e01b0316611340565b60009392505050565b60c9547f821b6e3a557148015a918c89e5d092e878a69854a2d1a410635f771bd5a8a3f590610636906001600160a01b03163033610bd1565b7f4910fdfa16fed3260ed0e7147f7cc6da11a60208b5b9406d12a635614ffd91435460ff16156136b857610be483614297565b826001600160a01b03166352d1902d6040518163ffffffff1660e01b8152600401602060405180830381865afa925050508015613712575060408051601f3d908101601f1916820190925261370f91810190615614565b60015b6137845760405162461bcd60e51b815260206004820152602e60248201527f45524331393637557067726164653a206e657720696d706c656d656e7461746960448201527f6f6e206973206e6f74205555505300000000000000000000000000000000000060648201526084016107e0565b7f360894a13ba1a3210667c828492db98dca3e2076cc3735a920a3ca505d382bbc81146138195760405162461bcd60e51b815260206004820152602960248201527f45524331393637557067726164653a20756e737570706f727465642070726f7860448201527f6961626c6555554944000000000000000000000000000000000000000000000060648201526084016107e0565b50610be4838383614355565b60004382106138765760405162461bcd60e51b815260206004820181905260248201527f436865636b706f696e74733a20626c6f636b206e6f7420796574206d696e656460448201526064016107e0565b60006138818361437a565b84549091506000613894868483856143f6565b905080156138c2576138ab8661361e600184615858565b5464010000000090046001600160e01b03166138c5565b60005b6001600160e01b03169695505050505050565b6000805b8360a001515181101561393157826001600160a01b03168460a00151828151811061390957613909615732565b60200260200101516001600160a01b031603613929576001915050610626565b6001016138dc565b5060009392505050565b6139436123bf565b60008190036139685760405163148007c560e31b8152600481018290526024016107e0565b600081613973610be9565b61397d9190615845565b905061ffff8111156139ac5760405162496b8d60e61b815261ffff6004820152602481018290526044016107e0565b6139b68383614454565b61019180546fffffffffffffffff00000000000000001916600160401b436001600160401b0316021790556040517f16fc0d8d129e5d736ba1c955c298986a94cb8475c77b7184fa6cda49be4bafe5906135f79085908590615913565b600054610100900460ff16613a7e5760405162461bcd60e51b815260206004820152602b60248201527f496e697469616c697a61626c653a20636f6e7472616374206973206e6f74206960448201526a6e697469616c697a696e6760a81b60648201526084016107e0565b610653816144c1565b613a8f61240d565b613a9d6001620f4240615858565b816060015163ffffffff161115613ae957613abc6001620f4240615858565b606082015160405163cc80c19560e01b8152600481019290925263ffffffff1660248201526044016107e0565b620f4240816040015163ffffffff161115613b2e57604080820151905163cc80c19560e01b8152620f4240600482015263ffffffff90911660248201526044016107e0565b6301e1338081608001516001600160401b03161115613b7b576080810151604051632b6ba48f60e21b81526301e1338060048201526001600160401b0390911660248201526044016107e0565b61012c81608001516001600160401b03161015613bc4576080810151604051632b6ba48f60e21b8152610e1060048201526001600160401b0390911660248201526044016107e0565b6301e133808160a001516001600160401b03161115613c115760a0810151604051630ba3bbab60e41b81526301e1338060048201526001600160401b0390911660248201526044016107e0565b61012c8160a001516001600160401b03161015613c5a5760a0810151604051630ba3bbab60e41b8152610e1060048201526001600160401b0390911660248201526044016107e0565b80516101938054602084015160408501516060860151608087015160a088015162ffffff1990951696151562ffff0019169690961761010061ffff9094168402176affffffffffffffff0000001916630100000063ffffffff938416026affffffff000000000000001916176701000000000000009290911691909102177fffffffffff00000000000000000000000000000000ffffffffffffffffffffff16600160581b6001600160401b03958616027fffffffffff0000000000000000ffffffffffffffffffffffffffffffffffffff1617600160981b949092169390930217815560c083015161019480546001600160a01b0319166001600160a01b0390921691909117905560e0830151610195559082015182919061019690613d819082615673565b5050610191805467ffffffffffffffff1916436001600160401b031617905550610100810151604051613db49190615956565b60405180910390208160c001516001600160a01b0316826020015161ffff167f823fd5f3f4ef81d34c23b76dc23575af42c26dbd47f3d42bb4bba0a8246d230b84600001518560400151866060015187608001518860a001518960e00151604051613e5e96959493929190951515865263ffffffff94851660208701529290931660408501526001600160401b03908116606085015291909116608083015260a082015260c00190565b60405180910390a450565b60006001600160e01b0319821663041de68360e41b1480613e9a57506001600160e01b031982166352d1902d60e01b145b8061062657506301ffc9a760e01b6001600160e01b0319831614610626565b600061ffff8211156134415760405162461bcd60e51b815260206004820152602660248201527f53616665436173743a2076616c756520646f65736e27742066697420696e203160448201527f362062697473000000000000000000000000000000000000000000000000000060648201526084016107e0565b6000620f4240821115613f655760405163cc80c19560e01b8152620f42406004820152602481018390526044016107e0565b613f6f828461586b565b92506000613f80620f424085615988565b9050613f8f620f42408561599c565b91508015613fa357613fa0826159b0565b91505b5092915050565b600081600081518110613fbf57613fbf615732565b6020026020010151600181518110613fd957613fd9615732565b602002602001015182600081518110613ff457613ff4615732565b602002602001015160008151811061400e5761400e615732565b60200260200101516140209190615845565b620f42408360008151811061403757614037615732565b602002602001015160008151811061405157614051615732565b6020026020010151614063919061586b565b610626919061599c565b6040516331c6fcc960e21b81526060906000906001600160a01b0387169063c71bf324906140a3908890889088906004016159c9565b6000604051808303816000875af11580156140c2573d6000803e3d6000fd5b505050506040513d6000823e601f3d908101601f191682016040526140ea91908101906159f2565b604051919350915085907f712ae1383f79ac853f8d882153778e0260ef8f03b504e2866e0593e04d2b291f90600090a294509492505050565b600080429050806001600160401b03168360600151602001516001600160401b03161080156141755750614158600182615ae5565b6001600160401b03168360600151604001516001600160401b0316105b801561419a5750806001600160401b03168360600151606001516001600160401b0316115b156136435750600192915050565b60005b81811015614287576141dd8383838181106141c8576141c8615732565b90506020020160208101906105a69190615051565b61422d578282828181106141f3576141f3615732565b90506020020160208101906142089190615051565b60405163c0b7477d60e01b81526001600160a01b0390911660048201526024016107e0565b61427d600061015f600086868681811061424957614249615732565b905060200201602081019061425e9190615051565b6001600160a01b0316815260208101919091526040016000209061454e565b50506001016141ab565b506123b961016061458483614589565b6001600160a01b0381163b6143145760405162461bcd60e51b815260206004820152602d60248201527f455243313936373a206e657720696d706c656d656e746174696f6e206973206e60448201527f6f74206120636f6e74726163740000000000000000000000000000000000000060648201526084016107e0565b7f360894a13ba1a3210667c828492db98dca3e2076cc3735a920a3ca505d382bbc80546001600160a01b0319166001600160a01b0392909216919091179055565b61435e836145c1565b60008251118061436b5750805b15610be4576123b98383614601565b600063ffffffff8211156134415760405162461bcd60e51b815260206004820152602660248201527f53616665436173743a2076616c756520646f65736e27742066697420696e203360448201527f322062697473000000000000000000000000000000000000000000000000000060648201526084016107e0565b60005b8183101561444c57600061440d8484614626565b60008781526020902090915063ffffffff86169082015463ffffffff16111561443857809250614446565b614443816001615845565b93505b506143f9565b509392505050565b60005b818110156144b1576144748383838181106141c8576141c8615732565b1561448b578282828181106141f3576141f3615732565b6144a7600161015f600086868681811061424957614249615732565b5050600101614457565b506123b961016061464183614589565b600054610100900460ff1661452c5760405162461bcd60e51b815260206004820152602b60248201527f496e697469616c697a61626c653a20636f6e7472616374206973206e6f74206960448201526a6e697469616c697a696e6760a81b60648201526084016107e0565b60c980546001600160a01b0319166001600160a01b0392909216919091179055565b60008061456c8461455e4361437a565b61456786614645565b6146c4565b6001600160e01b0391821693501690505b9250929050565b900390565b6000806145b4856145af61459c88613604565b6001600160e01b0316868863ffffffff16565b61454e565b915091505b935093915050565b6145ca81614297565b6040516001600160a01b038216907fbc7cd75a20ee27fd9adebab32041f755214dbc6bffa90cc0225b39da2e5c2d3b90600090a250565b60606113408383604051806060016040528060278152602001615b1960279139614867565b6000614635600284841861599c565b61134090848416615845565b0190565b60006001600160e01b038211156134415760405162461bcd60e51b815260206004820152602760248201527f53616665436173743a2076616c756520646f65736e27742066697420696e203260448201527f323420626974730000000000000000000000000000000000000000000000000060648201526084016107e0565b82546000908190801561480d5760006146e28761361e600185615858565b60408051808201909152905463ffffffff8082168084526401000000009092046001600160e01b0316602084015291925090871610156147645760405162461bcd60e51b815260206004820152601b60248201527f436865636b706f696e743a2064656372656173696e67206b657973000000000060448201526064016107e0565b805163ffffffff8088169116036147ad57846147858861361e600186615858565b80546001600160e01b03929092166401000000000263ffffffff9092169190911790556147fd565b6040805180820190915263ffffffff80881682526001600160e01b0380881660208085019182528b54600181018d5560008d81529190912094519151909216640100000000029216919091179101555b6020015192508391506145b99050565b50506040805180820190915263ffffffff80851682526001600160e01b0380851660208085019182528854600181018a5560008a8152918220955192519093166401000000000291909316179201919091559050816145b9565b6060600080856001600160a01b0316856040516148849190615956565b600060405180830381855af49150503d80600081146148bf576040519150601f19603f3d011682016040523d82523d6000602084013e6148c4565b606091505b50915091506148d5868383876148df565b9695505050505050565b6060831561494e578251600003614947576001600160a01b0385163b6149475760405162461bcd60e51b815260206004820152601d60248201527f416464726573733a2063616c6c20746f206e6f6e2d636f6e747261637400000060448201526064016107e0565b5081610b94565b610b9483838151156149635781518083602001fd5b8060405162461bcd60e51b81526004016107e09190615b05565b8280548282559060005260206000209081019282156149d2579160200282015b828111156149d257825182546001600160a01b0319166001600160a01b0390911617825560209092019160019091019061499d565b50613441929150614a55565b50805460008255906000526020600020908101906106539190614a55565b828054828255906000526020600020908101928215614a49579160200282015b82811115614a495782518051614a39918491602090910190614a6a565b5091602001919060010190614a1c565b50613441929150614aa5565b5b808211156134415760008155600101614a56565b8280548282559060005260206000209081019282156149d2579160200282015b828111156149d2578251825591602001919060010190614a8a565b80821115613441576000614ab982826149de565b50600101614aa5565b600060208284031215614ad457600080fd5b81356001600160e01b03198116811461134057600080fd5b801515811461065357600080fd5b8035614b0581614aec565b919050565b60008060408385031215614b1d57600080fd5b823591506020830135614b2f81614aec565b809150509250929050565b600060208284031215614b4c57600080fd5b5035919050565b634e487b7160e01b600052604160045260246000fd5b604051606081016001600160401b0381118282101715614b8b57614b8b614b53565b60405290565b60405160e081016001600160401b0381118282101715614b8b57614b8b614b53565b60405161012081016001600160401b0381118282101715614b8b57614b8b614b53565b604051601f8201601f191681016001600160401b0381118282101715614bfe57614bfe614b53565b604052919050565b60006001600160401b03821115614c1f57614c1f614b53565b5060051b60200190565b6000806040808486031215614c3d57600080fd5b833592506020808501356001600160401b0380821115614c5c57600080fd5b818701915087601f830112614c7057600080fd5b8135614c83614c7e82614c06565b614bd6565b81815260059190911b8301840190848101908a831115614ca257600080fd5b8585015b83811015614d2e57803585811115614cbe5760008081fd5b8601603f81018d13614cd05760008081fd5b87810135614ce0614c7e82614c06565b81815260059190911b82018a0190898101908f831115614d005760008081fd5b928b01925b82841015614d1e5783358252928a0192908a0190614d05565b8652505050918601918601614ca6565b50809750505050505050509250929050565b80356001600160401b0381168114614b0557600080fd5b60006001600160401b03821115614d7057614d70614b53565b50601f01601f191660200190565b600082601f830112614d8f57600080fd5b8135614d9d614c7e82614d57565b818152846020838601011115614db257600080fd5b816020850160208301376000918101602001919091529392505050565b6001600160a01b038116811461065357600080fd5b8035614b0581614dcf565b600082601f830112614e0057600080fd5b81356020614e10614c7e83614c06565b82815260059290921b84018101918181019086841115614e2f57600080fd5b8286015b84811015614ec35780356001600160401b0380821115614e535760008081fd5b908801906060828b03601f1901811315614e6d5760008081fd5b614e75614b69565b87840135614e8281614dcf565b815260408481013589830152918401359183831115614ea15760008081fd5b614eaf8d8a85880101614d7e565b908201528652505050918301918301614e33565b509695505050505050565b60008060008060808587031215614ee457600080fd5b843593506020850135925060408501356001600160401b0380821115614f0957600080fd5b9086019060e08289031215614f1d57600080fd5b614f25614b91565b614f2e83614d40565b8152614f3c60208401614d40565b6020820152614f4d60408401614d40565b6040820152614f5e60608401614d40565b60608201526080830135608082015260a083013582811115614f7f57600080fd5b614f8b8a828601614d7e565b60a08301525060c083013560c0820152809450506060870135915080821115614fb357600080fd5b50614fc087828801614def565b91505092959194509250565b60008083601f840112614fde57600080fd5b5081356001600160401b03811115614ff557600080fd5b6020830191508360208260051b850101111561457d57600080fd5b6000806020838503121561502357600080fd5b82356001600160401b0381111561503957600080fd5b61504585828601614fcc565b90969095509350505050565b60006020828403121561506357600080fd5b813561134081614dcf565b602081016003831061509057634e487b7160e01b600052602160045260246000fd5b91905290565b600080604083850312156150a957600080fd5b82356150b481614dcf565b915060208301356001600160401b038111156150cf57600080fd5b6150db85828601614d7e565b9150509250929050565b600080604083850312156150f857600080fd5b823591506020830135614b2f81614dcf565b60005b8381101561512557818101518382015260200161510d565b50506000910152565b6000815180845261514681602086016020860161510a565b601f01601f19169290920160200192915050565b6020815261516d60208201835115159052565b60006020830151615184604084018261ffff169052565b50604083015163ffffffff8116606084015250606083015163ffffffff811660808401525060808301516001600160401b03811660a08401525060a08301516001600160401b03811660c08401525060c08301516001600160a01b03811660e08401525060e08301516101008381019190915283015161012080840152613fa061014084018261512e565b803561ffff81168114614b0557600080fd5b803563ffffffff81168114614b0557600080fd5b6000610120828403121561524857600080fd5b615250614bb3565b905061525b82614afa565b81526152696020830161520f565b602082015261527a60408301615221565b604082015261528b60608301615221565b606082015261529c60808301614d40565b60808201526152ad60a08301614d40565b60a08201526152be60c08301614de4565b60c082015260e082013560e0820152610100808301356001600160401b038111156152e857600080fd5b6152f485828601614d7e565b82840152505092915050565b6000806000806060858703121561531657600080fd5b843561532181614dcf565b935060208501356001600160401b038082111561533d57600080fd5b61534988838901614fcc565b9095509350604087013591508082111561536257600080fd5b50614fc087828801615235565b6000806040838503121561538257600080fd5b823561538d81614dcf565b946020939093013593505050565b60006001600160401b03808351168452806020840151166020850152806040840151166040850152806060840151166060850152506080820151608084015260a082015160e060a08501526153f360e085018261512e565b60c093840151949093019390935250919050565b600081518084526020808501808196508360051b810191508286016000805b86811015615475578385038a52825180518087529087019087870190845b8181101561546057835183529289019291890191600101615444565b50509a87019a95505091850191600101615426565b509298975050505050505050565b600081518084526020808501808196508360051b8101915082860160005b858110156154f4578284038952815180516001600160a01b0316855285810151868601526040908101516060918601829052906154e08187018361512e565b9a87019a95505050908401906001016154a1565b5091979650505050505050565b600060e082018915158352602060e081850152818a5180845261010086019150828c01935060005b8181101561554e5784516001600160a01b031683529383019391830191600101615529565b50508960408601528481036060860152615568818a61539b565b9250505085608084015282810360a08401526155848186615407565b905082810360c08401526155988185615483565b9a9950505050505050505050565b6000602082840312156155b857600080fd5b81356001600160401b038111156155ce57600080fd5b613fa084828501615235565b600181811c908216806155ee57607f821691505b60208210810361560e57634e487b7160e01b600052602260045260246000fd5b50919050565b60006020828403121561562657600080fd5b5051919050565b601f821115610be457600081815260208120601f850160051c810160208610156156545750805b601f850160051c820191505b818110156134f957828155600101615660565b81516001600160401b0381111561568c5761568c614b53565b6156a08161569a84546155da565b8461562d565b602080601f8311600181146156d557600084156156bd5750858301515b600019600386901b1c1916600185901b1785556134f9565b600085815260208120601f198616915b82811015615704578886015182559484019460019091019084016156e5565b50858210156157225787850151600019600388901b60f8161c191681555b5050505050600190811b01905550565b634e487b7160e01b600052603260045260246000fd5b60006001600160401b038088168352808716602084015280861660408401525060a0606083015261577c60a0830185615483565b90508260808301529695505050505050565b6000602080830181845280855480835260408601915060408160051b87010192506000878152848120815b8381101561580e57888603603f1901855281548087528284528784208888019190855b828110156157f85781548452928a0192600191820191016157dc565b50919750505093860193600191820191016157b9565b509398975050505050505050565b6020815260006113406020830184615407565b634e487b7160e01b600052601160045260246000fd5b808201808211156106265761062661582f565b818103818111156106265761062661582f565b80820281158282048414176106265761062661582f565b6001600160401b03818116838216019080821115613fa357613fa361582f565b60006001600160a01b03808816835280871660208401525084604083015260806060830152826080830152828460a0840137600060a0848401015260a0601f19601f85011683010190509695505050505050565b60006020828403121561590857600080fd5b815161134081614aec565b60208082528181018390526000908460408401835b86811015614ec357823561593b81614dcf565b6001600160a01b031682529183019190830190600101615928565b6000825161596881846020870161510a565b9190910192915050565b634e487b7160e01b600052601260045260246000fd5b60008261599757615997615972565b500690565b6000826159ab576159ab615972565b500490565b6000600182016159c2576159c261582f565b5060010190565b8381526060602082015260006159e26060830185615483565b9050826040830152949350505050565b6000806040808486031215615a0657600080fd5b83516001600160401b0380821115615a1d57600080fd5b818601915086601f830112615a3157600080fd5b81516020615a41614c7e83614c06565b82815260059290921b8401810191818101908a841115615a6057600080fd5b8286015b84811015615ad157805186811115615a7c5760008081fd5b8701603f81018d13615a8e5760008081fd5b84810151615a9e614c7e82614d57565b8181528e8b838501011115615ab35760008081fd5b615ac2828883018d860161510a565b85525050918301918301615a64565b509890910151979997985050505050505050565b6001600160401b03828116828216039080821115613fa357613fa361582f565b602081526000611340602083018461512e56fe416464726573733a206c6f772d6c6576656c2064656c65676174652063616c6c206661696c6564a164736f6c6343000811000a",
  "devdoc": {
    "author": "Vocdoni",
    "errors": {
      "TokenNotContract(address)": [
        {
          "params": {
            "token": "The token address"
          }
        }
      ],
      "TokenNotERC20(address)": [
        {
          "params": {
            "token": "The token address"
          }
        }
      ],
      "WrongHelpersArrayLength(uint256)": [
        {
          "params": {
            "length": "The array length of passed helpers."
          }
        }
      ]
    },
    "kind": "dev",
    "methods": {
      "implementation()": {
        "details": "The implementation can be instantiated via the `new` keyword, cloned via the minimal clones pattern (see [ERC-1167](https://eips.ethereum.org/EIPS/eip-1167)), or proxied via the UUPS pattern (see [ERC-1822](https://eips.ethereum.org/EIPS/eip-1822)).",
        "returns": {
          "_0": "The address of the plugin implementation contract."
        }
      },
      "prepareInstallation(address,bytes)": {
        "params": {
          "_dao": "The address of the installing DAO.",
          "_data": "The bytes-encoded data containing the input parameters for the installation as specified in the plugin's build metadata JSON file."
        },
        "returns": {
          "plugin": "The address of the `Plugin` contract being prepared for installation.",
          "preparedSetupData": "The deployed plugin's relevant data which consists of helpers and permissions."
        }
      },
      "prepareUninstallation(address,(address,address[],bytes))": {
        "params": {
          "_dao": "The address of the uninstalling DAO.",
          "_payload": "The relevant data necessary for the `prepareUninstallation`. See above."
        },
        "returns": {
          "permissions": "The array of multi-targeted permission operations to be applied by the `PluginSetupProcessor` to the uninstalling DAO."
        }
      },
      "prepareUpdate(address,uint16,(address,address[],bytes))": {
        "params": {
          "_currentBuild": "The build number of the plugin to update from.",
          "_dao": "The address of the updating DAO.",
          "_payload": "The relevant data necessary for the `prepareUpdate`. See above."
        },
        "returns": {
          "initData": "The initialization data to be passed to upgradeable contracts when the update is applied in the `PluginSetupProcessor`.",
          "preparedSetupData": "The deployed plugin's relevant data which consists of helpers and permissions."
        }
      },
      "supportsInterface(bytes4)": {
        "params": {
          "_interfaceId": "The ID of the interface."
        },
        "returns": {
          "_0": "Returns `true` if the interface is supported."
        }
      }
    },
    "title": "VocdoniVotingSetup",
    "version": 1
  },
  "userdoc": {
    "errors": {
      "TokenNotContract(address)": [
        {
          "notice": "Thrown if token address is passed which is not a token."
        }
      ],
      "TokenNotERC20(address)": [
        {
          "notice": "Thrown if token address is not ERC20."
        }
      ],
      "WrongHelpersArrayLength(uint256)": [
        {
          "notice": "Thrown if passed helpers array is of wrong length."
        }
      ]
    },
    "kind": "user",
    "methods": {
      "constructor": {
        "notice": "The contract constructor, that deploys the `VocdoniVoting` plugin logic contract."
      },
      "governanceERC20Base()": {
        "notice": "The address of the `GovernanceERC20` base contract."
      },
      "governanceWrappedERC20Base()": {
        "notice": "The address of the `GovernanceWrappedERC20` base contract."
      },
      "implementation()": {
        "notice": "Returns the plugin implementation address."
      },
      "prepareInstallation(address,bytes)": {
        "notice": "Prepares the installation of a plugin."
      },
      "prepareUninstallation(address,(address,address[],bytes))": {
        "notice": "Prepares the uninstallation of a plugin."
      },
      "prepareUpdate(address,uint16,(address,address[],bytes))": {
        "notice": "Prepares the update of a plugin."
      },
      "supportsInterface(bytes4)": {
        "notice": "Checks if this or the parent contract supports an interface by its ID."
      }
    },
    "notice": "The setup contract of the `VocdoniVoting` plugin.",
    "version": 1
  },
  "storageLayout": {
    "storage": [],
    "types": null
  }
}