{
  "address": "0x8dCb538Bf27CCED7A3498c45e9D51CBfa479bacF",
  "abi": [
    {
      "inputs": [
        {
          "internalType": "contract GovernanceERC20",
          "name": "_governanceERC20Base",
          "type": "address"
        },
        {
          "internalType": "contract GovernanceWrappedERC20",
          "name": "_governanceWrappedERC20Base",
          "type": "address"
        }
      ],
      "stateMutability": "nonpayable",
      "type": "constructor"
    },
    {
      "inputs": [
        {
          "internalType": "address",
          "name": "token",
          "type": "address"
        }
      ],
      "name": "TokenNotContract",
      "type": "error"
    },
    {
      "inputs": [
        {
          "internalType": "address",
          "name": "token",
          "type": "address"
        }
      ],
      "name": "TokenNotERC20",
      "type": "error"
    },
    {
      "inputs": [
        {
          "internalType": "uint256",
          "name": "length",
          "type": "uint256"
        }
      ],
      "name": "WrongHelpersArrayLength",
      "type": "error"
    },
    {
      "inputs": [],
      "name": "governanceERC20Base",
      "outputs": [
        {
          "internalType": "address",
          "name": "",
          "type": "address"
        }
      ],
      "stateMutability": "view",
      "type": "function"
    },
    {
      "inputs": [],
      "name": "governanceWrappedERC20Base",
      "outputs": [
        {
          "internalType": "address",
          "name": "",
          "type": "address"
        }
      ],
      "stateMutability": "view",
      "type": "function"
    },
    {
      "inputs": [],
      "name": "implementation",
      "outputs": [
        {
          "internalType": "address",
          "name": "",
          "type": "address"
        }
      ],
      "stateMutability": "view",
      "type": "function"
    },
    {
      "inputs": [
        {
          "internalType": "address",
          "name": "_dao",
          "type": "address"
        },
        {
          "internalType": "bytes",
          "name": "_data",
          "type": "bytes"
        }
      ],
      "name": "prepareInstallation",
      "outputs": [
        {
          "internalType": "address",
          "name": "plugin",
          "type": "address"
        },
        {
          "components": [
            {
              "internalType": "address[]",
              "name": "helpers",
              "type": "address[]"
            },
            {
              "components": [
                {
                  "internalType": "enum PermissionLib.Operation",
                  "name": "operation",
                  "type": "uint8"
                },
                {
                  "internalType": "address",
                  "name": "where",
                  "type": "address"
                },
                {
                  "internalType": "address",
                  "name": "who",
                  "type": "address"
                },
                {
                  "internalType": "address",
                  "name": "condition",
                  "type": "address"
                },
                {
                  "internalType": "bytes32",
                  "name": "permissionId",
                  "type": "bytes32"
                }
              ],
              "internalType": "struct PermissionLib.MultiTargetPermission[]",
              "name": "permissions",
              "type": "tuple[]"
            }
          ],
          "internalType": "struct IPluginSetup.PreparedSetupData",
          "name": "preparedSetupData",
          "type": "tuple"
        }
      ],
      "stateMutability": "nonpayable",
      "type": "function"
    },
    {
      "inputs": [
        {
          "internalType": "address",
          "name": "_dao",
          "type": "address"
        },
        {
          "components": [
            {
              "internalType": "address",
              "name": "plugin",
              "type": "address"
            },
            {
              "internalType": "address[]",
              "name": "currentHelpers",
              "type": "address[]"
            },
            {
              "internalType": "bytes",
              "name": "data",
              "type": "bytes"
            }
          ],
          "internalType": "struct IPluginSetup.SetupPayload",
          "name": "_payload",
          "type": "tuple"
        }
      ],
      "name": "prepareUninstallation",
      "outputs": [
        {
          "components": [
            {
              "internalType": "enum PermissionLib.Operation",
              "name": "operation",
              "type": "uint8"
            },
            {
              "internalType": "address",
              "name": "where",
              "type": "address"
            },
            {
              "internalType": "address",
              "name": "who",
              "type": "address"
            },
            {
              "internalType": "address",
              "name": "condition",
              "type": "address"
            },
            {
              "internalType": "bytes32",
              "name": "permissionId",
              "type": "bytes32"
            }
          ],
          "internalType": "struct PermissionLib.MultiTargetPermission[]",
          "name": "permissions",
          "type": "tuple[]"
        }
      ],
      "stateMutability": "view",
      "type": "function"
    },
    {
      "inputs": [
        {
          "internalType": "address",
          "name": "_dao",
          "type": "address"
        },
        {
          "internalType": "uint16",
          "name": "_currentBuild",
          "type": "uint16"
        },
        {
          "components": [
            {
              "internalType": "address",
              "name": "plugin",
              "type": "address"
            },
            {
              "internalType": "address[]",
              "name": "currentHelpers",
              "type": "address[]"
            },
            {
              "internalType": "bytes",
              "name": "data",
              "type": "bytes"
            }
          ],
          "internalType": "struct IPluginSetup.SetupPayload",
          "name": "_payload",
          "type": "tuple"
        }
      ],
      "name": "prepareUpdate",
      "outputs": [
        {
          "internalType": "bytes",
          "name": "initData",
          "type": "bytes"
        },
        {
          "components": [
            {
              "internalType": "address[]",
              "name": "helpers",
              "type": "address[]"
            },
            {
              "components": [
                {
                  "internalType": "enum PermissionLib.Operation",
                  "name": "operation",
                  "type": "uint8"
                },
                {
                  "internalType": "address",
                  "name": "where",
                  "type": "address"
                },
                {
                  "internalType": "address",
                  "name": "who",
                  "type": "address"
                },
                {
                  "internalType": "address",
                  "name": "condition",
                  "type": "address"
                },
                {
                  "internalType": "bytes32",
                  "name": "permissionId",
                  "type": "bytes32"
                }
              ],
              "internalType": "struct PermissionLib.MultiTargetPermission[]",
              "name": "permissions",
              "type": "tuple[]"
            }
          ],
          "internalType": "struct IPluginSetup.PreparedSetupData",
          "name": "preparedSetupData",
          "type": "tuple"
        }
      ],
      "stateMutability": "nonpayable",
      "type": "function"
    },
    {
      "inputs": [
        {
          "internalType": "bytes4",
          "name": "_interfaceId",
          "type": "bytes4"
        }
      ],
      "name": "supportsInterface",
      "outputs": [
        {
          "internalType": "bool",
          "name": "",
          "type": "bool"
        }
      ],
      "stateMutability": "view",
      "type": "function"
    }
  ],
  "transactionHash": "0xfa76d5b89e8382b89133ebb3b1a33308870c7b5033440661c662f1bb3c882b04",
  "args": [
    "0xf868169bde323f45005e476287f4c76411a610f8",
    "0x073b8528bcfbb2454c8fa792558aa4a1e64c613b"
  ],
  "numDeployments": 1,
  "solcInputHash": "a4b1fde8af8923e78e9eb969c5556451",
  "bytecode": "0x60e06040523480156200001157600080fd5b5060405162008561380380620085618339810160408190526200003491620000af565b6001600160a01b0380831660a052811660c052604051620000559062000088565b604051809103906000f08015801562000072573d6000803e3d6000fd5b506001600160a01b031660805250620000ee9050565b61548380620030de83390190565b6001600160a01b0381168114620000ac57600080fd5b50565b60008060408385031215620000c357600080fd5b8251620000d08162000096565b6020840151909250620000e38162000096565b809150509250929050565b60805160a05160c051612f826200015c600039600081816101800152610c3b01526000818160be0152610d1d0152600081816101080152818161049f015281816105cd015281816106fb01528181610e2f0152818161102301528181611141015261125f0152612f826000f3fe60806040523480156200001157600080fd5b5060043610620000875760003560e01c80639cb0a12411620000625780639cb0a124146200012d578063a8a9c29e1462000153578063e89b6b91146200017a578063f10832f114620001a257600080fd5b806301ffc9a7146200008c578063599cb1a614620000b85780635c60da1b1462000106575b600080fd5b620000a36200009d36600462001b04565b620001c9565b60405190151581526020015b60405180910390f35b620000e07f000000000000000000000000000000000000000000000000000000000000000081565b60405173ffffffffffffffffffffffffffffffffffffffff9091168152602001620000af565b7f0000000000000000000000000000000000000000000000000000000000000000620000e0565b620001446200013e36600462001b86565b62000263565b604051620000af919062001c67565b6200016a6200016436600462001cc7565b620009d1565b604051620000af92919062001e5e565b620000e07f000000000000000000000000000000000000000000000000000000000000000081565b620001b9620001b336600462001e90565b620009f9565b604051620000af92919062001f1a565b60007fffffffff0000000000000000000000000000000000000000000000000000000082167f99718b500000000000000000000000000000000000000000000000000000000014806200025d57507f01ffc9a7000000000000000000000000000000000000000000000000000000007fffffffff000000000000000000000000000000000000000000000000000000008316145b92915050565b6060600062000276602084018462001f4b565b91505060018114620002bc576040517ff14c61fc000000000000000000000000000000000000000000000000000000008152600481018290526024015b60405180910390fd5b6000620002cd602085018562001f4b565b6000818110620002e157620002e162001fbd565b9050602002016020810190620002f8919062001fec565b90506000620003078262001523565b905060008160008151811062000321576200032162001fbd565b602002602001015180156200035057508160018151811062000347576200034762001fbd565b60200260200101515b8015620003785750816002815181106200036e576200036e62001fbd565b6020026020010151155b905080620003885760046200038b565b60055b60ff1667ffffffffffffffff811115620003a957620003a96200200a565b6040519080825280602002602001820160405280156200042257816020015b6040805160a0810182526000808252602080830182905292820181905260608201819052608082015282527fffffffffffffffffffffffffffffffffffffffffffffffffffffffffffffffff909201910181620003c85790505b506040805160a0810190915260018152909550602080820190620004499089018962001fec565b73ffffffffffffffffffffffffffffffffffffffff1681526020018873ffffffffffffffffffffffffffffffffffffffff168152602001600073ffffffffffffffffffffffffffffffffffffffff1681526020017f000000000000000000000000000000000000000000000000000000000000000073ffffffffffffffffffffffffffffffffffffffff1663e2c801b66040518163ffffffff1660e01b8152600401602060405180830381865afa15801562000509573d6000803e3d6000fd5b505050506040513d601f19601f820116820180604052508101906200052f919062002039565b8152508560008151811062000548576200054862001fbd565b60209081029190910101526040805160a081019091528060018152602090810190620005779089018962001fec565b73ffffffffffffffffffffffffffffffffffffffff1681526020018873ffffffffffffffffffffffffffffffffffffffff168152602001600073ffffffffffffffffffffffffffffffffffffffff1681526020017f000000000000000000000000000000000000000000000000000000000000000073ffffffffffffffffffffffffffffffffffffffff166368d35a656040518163ffffffff1660e01b8152600401602060405180830381865afa15801562000637573d6000803e3d6000fd5b505050506040513d601f19601f820116820180604052508101906200065d919062002039565b8152508560018151811062000676576200067662001fbd565b60209081029190910101526040805160a081019091528060018152602090810190620006a59089018962001fec565b73ffffffffffffffffffffffffffffffffffffffff1681526020018873ffffffffffffffffffffffffffffffffffffffff168152602001600073ffffffffffffffffffffffffffffffffffffffff1681526020017f000000000000000000000000000000000000000000000000000000000000000073ffffffffffffffffffffffffffffffffffffffff1663c9c4bfca6040518163ffffffff1660e01b8152600401602060405180830381865afa15801562000765573d6000803e3d6000fd5b505050506040513d601f19601f820116820180604052508101906200078b919062002039565b81525085600281518110620007a457620007a462001fbd565b60209081029190910101526040805160a0810190915280600181526020018873ffffffffffffffffffffffffffffffffffffffff168152602001876000016020810190620007f3919062001fec565b73ffffffffffffffffffffffffffffffffffffffff168152602001600073ffffffffffffffffffffffffffffffffffffffff1681526020018873ffffffffffffffffffffffffffffffffffffffff16630729d0546040518163ffffffff1660e01b8152600401602060405180830381865afa15801562000877573d6000803e3d6000fd5b505050506040513d601f19601f820116820180604052508101906200089d919062002039565b81525085600381518110620008b657620008b662001fbd565b60200260200101819052508015620009c7576040805160a0810190915280600181526020018473ffffffffffffffffffffffffffffffffffffffff1681526020018873ffffffffffffffffffffffffffffffffffffffff168152602001600073ffffffffffffffffffffffffffffffffffffffff1681526020018473ffffffffffffffffffffffffffffffffffffffff1663b2d2989c6040518163ffffffff1660e01b8152600401602060405180830381865afa1580156200097c573d6000803e3d6000fd5b505050506040513d601f19601f82011682018060405250810190620009a2919062002039565b81525085600481518110620009bb57620009bb62001fbd565b60200260200101819052505b5050505092915050565b6060620009f1604051806040016040528060608152602001606081525090565b935093915050565b600062000a19604051806040016040528060608152602001606081525090565b600080808062000a2c87890189620023de565b81516040805160018082528183019092529599509397509195509350916000916020808301908036833701905050905073ffffffffffffffffffffffffffffffffffffffff82161562000d175773ffffffffffffffffffffffffffffffffffffffff82163b62000ae1576040517f18aca2db00000000000000000000000000000000000000000000000000000000815273ffffffffffffffffffffffffffffffffffffffff83166004820152602401620002b3565b62000aec82620016e0565b62000b3c576040517ffa8925f100000000000000000000000000000000000000000000000000000000815273ffffffffffffffffffffffffffffffffffffffff83166004820152602401620002b3565b600062000b498362001523565b90508060008151811062000b615762000b6162001fbd565b602002602001015115801562000b9257508060018151811062000b885762000b8862001fbd565b6020026020010151155b801562000bba57508060028151811062000bb05762000bb062001fbd565b6020026020010151155b8062000c2f57508060008151811062000bd75762000bd762001fbd565b6020026020010151801562000c0757508060018151811062000bfd5762000bfd62001fbd565b6020026020010151155b801562000c2f57508060028151811062000c255762000c2562001fbd565b6020026020010151155b1562000d105762000c767f000000000000000000000000000000000000000000000000000000000000000073ffffffffffffffffffffffffffffffffffffffff16620017d2565b8551602087015160408089015190517f9065714700000000000000000000000000000000000000000000000000000000815293965073ffffffffffffffffffffffffffffffffffffffff87169363906571479362000cdb939092909160040162002547565b600060405180830381600087803b15801562000cf657600080fd5b505af115801562000d0b573d6000803e3d6000fd5b505050505b5062000dd8565b62000d587f000000000000000000000000000000000000000000000000000000000000000073ffffffffffffffffffffffffffffffffffffffff16620017d2565b91508173ffffffffffffffffffffffffffffffffffffffff1663dab27fa98c86602001518760400151876040518563ffffffff1660e01b815260040162000da3949392919062002596565b600060405180830381600087803b15801562000dbe57600080fd5b505af115801562000dd3573d6000803e3d6000fd5b505050505b818160008151811062000def5762000def62001fbd565b602002602001019073ffffffffffffffffffffffffffffffffffffffff16908173ffffffffffffffffffffffffffffffffffffffff168152505062000ef07f000000000000000000000000000000000000000000000000000000000000000063038d6c9d60e01b8d898960405160240162000e6d939291906200264b565b604080517fffffffffffffffffffffffffffffffffffffffffffffffffffffffffffffffe08184030181529190526020810180517bffffffffffffffffffffffffffffffffffffffffffffffffffffffff167fffffffff00000000000000000000000000000000000000000000000000000000909316929092179091526200189c565b845190985060009073ffffffffffffffffffffffffffffffffffffffff1662000f1b57600562000f1e565b60045b60ff1667ffffffffffffffff81111562000f3c5762000f3c6200200a565b60405190808252806020026020018201604052801562000fb557816020015b6040805160a0810182526000808252602080830182905292820181905260608201819052608082015282527fffffffffffffffffffffffffffffffffffffffffffffffffffffffffffffffff90920191018162000f5b5790505b506040805160a0810190915290915080600081526020018a73ffffffffffffffffffffffffffffffffffffffff1681526020018d73ffffffffffffffffffffffffffffffffffffffff168152602001600073ffffffffffffffffffffffffffffffffffffffff1681526020017f000000000000000000000000000000000000000000000000000000000000000073ffffffffffffffffffffffffffffffffffffffff1663e2c801b66040518163ffffffff1660e01b8152600401602060405180830381865afa1580156200108d573d6000803e3d6000fd5b505050506040513d601f19601f82011682018060405250810190620010b3919062002039565b81525081600081518110620010cc57620010cc62001fbd565b60209081029190910101526040805160a0810190915280600081526020018a73ffffffffffffffffffffffffffffffffffffffff1681526020018d73ffffffffffffffffffffffffffffffffffffffff168152602001600073ffffffffffffffffffffffffffffffffffffffff1681526020017f000000000000000000000000000000000000000000000000000000000000000073ffffffffffffffffffffffffffffffffffffffff166368d35a656040518163ffffffff1660e01b8152600401602060405180830381865afa158015620011ab573d6000803e3d6000fd5b505050506040513d601f19601f82011682018060405250810190620011d1919062002039565b81525081600181518110620011ea57620011ea62001fbd565b60209081029190910101526040805160a0810190915280600081526020018a73ffffffffffffffffffffffffffffffffffffffff1681526020018d73ffffffffffffffffffffffffffffffffffffffff168152602001600073ffffffffffffffffffffffffffffffffffffffff1681526020017f000000000000000000000000000000000000000000000000000000000000000073ffffffffffffffffffffffffffffffffffffffff1663c9c4bfca6040518163ffffffff1660e01b8152600401602060405180830381865afa158015620012c9573d6000803e3d6000fd5b505050506040513d601f19601f82011682018060405250810190620012ef919062002039565b8152508160028151811062001308576200130862001fbd565b60209081029190910101526040805160a0810190915280600081526020018d73ffffffffffffffffffffffffffffffffffffffff1681526020018a73ffffffffffffffffffffffffffffffffffffffff168152602001600073ffffffffffffffffffffffffffffffffffffffff1681526020018d73ffffffffffffffffffffffffffffffffffffffff16630729d0546040518163ffffffff1660e01b8152600401602060405180830381865afa158015620013c7573d6000803e3d6000fd5b505050506040513d601f19601f82011682018060405250810190620013ed919062002039565b8152508160038151811062001406576200140662001fbd565b6020908102919091010152845173ffffffffffffffffffffffffffffffffffffffff166200150b5760008373ffffffffffffffffffffffffffffffffffffffff1663b2d2989c6040518163ffffffff1660e01b8152600401602060405180830381865afa1580156200147c573d6000803e3d6000fd5b505050506040513d601f19601f82011682018060405250810190620014a2919062002039565b6040805160a08101909152909150806000815273ffffffffffffffffffffffffffffffffffffffff80871660208301528f16604082015260006060820152608001829052825183906004908110620014fe57620014fe62001fbd565b6020026020010181905250505b90875260208701525094989397509295505050505050565b60408051600380825260808201909252606091600091906020820184803683370190505090507f36372b07000000000000000000000000000000000000000000000000000000008160008151811062001580576200158062001fbd565b60200260200101907bffffffffffffffffffffffffffffffffffffffffffffffffffffffff191690817bffffffffffffffffffffffffffffffffffffffffffffffffffffffff1916815250507fe90fb3f6000000000000000000000000000000000000000000000000000000008160018151811062001603576200160362001fbd565b60200260200101907bffffffffffffffffffffffffffffffffffffffffffffffffffffffff191690817bffffffffffffffffffffffffffffffffffffffffffffffffffffffff1916815250507f0f13099a000000000000000000000000000000000000000000000000000000008160028151811062001686576200168662001fbd565b7fffffffff0000000000000000000000000000000000000000000000000000000090921660209283029190910190910152620016d973ffffffffffffffffffffffffffffffffffffffff841682620018aa565b9392505050565b604080513060248083019190915282518083039091018152604490910182526020810180517bffffffffffffffffffffffffffffffffffffffffffffffffffffffff167f70a082310000000000000000000000000000000000000000000000000000000017905290516000918291829173ffffffffffffffffffffffffffffffffffffffff86169162001774919062002742565b600060405180830381855afa9150503d8060008114620017b1576040519150601f19603f3d011682016040523d82523d6000602084013e620017b6565b606091505b5091509150818015620017ca575080516020145b949350505050565b6000763d602d80600a3d3981f3363d3d373d3d3d363d730000008260601b60e81c176000526e5af43d82803e903d91602b57fd5bf38260781b17602052603760096000f0905073ffffffffffffffffffffffffffffffffffffffff811662001897576040517f08c379a000000000000000000000000000000000000000000000000000000000815260206004820152601660248201527f455243313136373a20637265617465206661696c6564000000000000000000006044820152606401620002b3565b919050565b6000620016d9838362001980565b60606000825167ffffffffffffffff811115620018cb57620018cb6200200a565b604051908082528060200260200182016040528015620018f5578160200160208202803683370190505b5090506200190384620019bc565b15620016d95760005b835181101562001978576200193e8585838151811062001930576200193062001fbd565b602002602001015162001a25565b82828151811062001953576200195362001fbd565b91151560209283029190910190910152806200196f8162002760565b9150506200190c565b509392505050565b60008282604051620019929062001af6565b6200199f929190620027c0565b604051809103906000f08015801562001978573d6000803e3d6000fd5b6000620019ea827f01ffc9a70000000000000000000000000000000000000000000000000000000062001a25565b80156200025d575062001a1e827fffffffff0000000000000000000000000000000000000000000000000000000062001a25565b1592915050565b604080517fffffffff000000000000000000000000000000000000000000000000000000008316602480830191909152825180830390910181526044909101909152602080820180517bffffffffffffffffffffffffffffffffffffffffffffffffffffffff167f01ffc9a700000000000000000000000000000000000000000000000000000000178152825160009392849283928392918391908a617530fa92503d9150600051905082801562001ade575060208210155b801562001aeb5750600081115b979650505050505050565b61078480620027f283390190565b60006020828403121562001b1757600080fd5b81357fffffffff0000000000000000000000000000000000000000000000000000000081168114620016d957600080fd5b803573ffffffffffffffffffffffffffffffffffffffff811681146200189757600080fd5b60006060828403121562001b8057600080fd5b50919050565b6000806040838503121562001b9a57600080fd5b62001ba58362001b48565b9150602083013567ffffffffffffffff81111562001bc257600080fd5b62001bd08582860162001b6d565b9150509250929050565b600081516003811062001c16577f4e487b7100000000000000000000000000000000000000000000000000000000600052602160045260246000fd5b83525060208181015173ffffffffffffffffffffffffffffffffffffffff90811691840191909152604080830151821690840152606080830151909116908301526080908101519082015260a00190565b6020808252825182820181905260009190848201906040850190845b8181101562001ca85762001c9983855162001bda565b93850193925060010162001c83565b50909695505050505050565b803561ffff811681146200189757600080fd5b60008060006060848603121562001cdd57600080fd5b62001ce88462001b48565b925062001cf86020850162001cb4565b9150604084013567ffffffffffffffff81111562001d1557600080fd5b62001d238682870162001b6d565b9150509250925092565b60005b8381101562001d4a57818101518382015260200162001d30565b50506000910152565b6000815180845262001d6d81602086016020860162001d2d565b601f017fffffffffffffffffffffffffffffffffffffffffffffffffffffffffffffffe0169290920160200192915050565b600081518084526020808501945080840160005b8381101562001de757815173ffffffffffffffffffffffffffffffffffffffff168752958201959082019060010162001db3565b509495945050505050565b600081516040845262001e09604085018262001d9f565b60208481015186830387830152805180845290820193509091600091908301905b8083101562001e535762001e4082865162001bda565b9150838501945060018301925062001e2a565b509695505050505050565b60408152600062001e73604083018562001d53565b828103602084015262001e87818562001df2565b95945050505050565b60008060006040848603121562001ea657600080fd5b62001eb18462001b48565b9250602084013567ffffffffffffffff8082111562001ecf57600080fd5b818601915086601f83011262001ee457600080fd5b81358181111562001ef457600080fd5b87602082850101111562001f0757600080fd5b6020830194508093505050509250925092565b73ffffffffffffffffffffffffffffffffffffffff83168152604060208201526000620017ca604083018462001df2565b60008083357fffffffffffffffffffffffffffffffffffffffffffffffffffffffffffffffe184360301811262001f8157600080fd5b83018035915067ffffffffffffffff82111562001f9d57600080fd5b6020019150600581901b360382131562001fb657600080fd5b9250929050565b7f4e487b7100000000000000000000000000000000000000000000000000000000600052603260045260246000fd5b60006020828403121562001fff57600080fd5b620016d98262001b48565b7f4e487b7100000000000000000000000000000000000000000000000000000000600052604160045260246000fd5b6000602082840312156200204c57600080fd5b5051919050565b6040805190810167ffffffffffffffff811182821017156200207957620020796200200a565b60405290565b604051610100810167ffffffffffffffff811182821017156200207957620020796200200a565b604051601f82017fffffffffffffffffffffffffffffffffffffffffffffffffffffffffffffffe016810167ffffffffffffffff81118282101715620020f057620020f06200200a565b604052919050565b600067ffffffffffffffff8211156200211557620021156200200a565b5060051b60200190565b600082601f8301126200213157600080fd5b813560206200214a6200214483620020f8565b620020a6565b82815260059290921b840181019181810190868411156200216a57600080fd5b8286015b8481101562001e5357620021828162001b48565b83529183019183016200216e565b803580151581146200189757600080fd5b803563ffffffff811681146200189757600080fd5b803567ffffffffffffffff811681146200189757600080fd5b600082601f830112620021e157600080fd5b813567ffffffffffffffff811115620021fe57620021fe6200200a565b6200223160207fffffffffffffffffffffffffffffffffffffffffffffffffffffffffffffffe0601f84011601620020a6565b8181528460208386010111156200224757600080fd5b816020850160208301376000918101602001919091529392505050565b6000606082840312156200227757600080fd5b6040516060810167ffffffffffffffff82821081831117156200229e576200229e6200200a565b81604052829350620022b08562001b48565b83526020850135915080821115620022c757600080fd5b620022d586838701620021cf565b60208401526040850135915080821115620022ef57600080fd5b50620022fe85828601620021cf565b6040830152505092915050565b6000604082840312156200231e57600080fd5b6200232862002053565b9050813567ffffffffffffffff808211156200234357600080fd5b62002351858386016200211f565b83526020915081840135818111156200236957600080fd5b84019050601f810185136200237d57600080fd5b80356200238e6200214482620020f8565b81815260059190911b82018301908381019087831115620023ae57600080fd5b928401925b82841015620023ce57833582529284019290840190620023b3565b8085870152505050505092915050565b60008060008060808587031215620023f557600080fd5b843567ffffffffffffffff808211156200240e57600080fd5b6200241c888389016200211f565b955060208701359150808211156200243357600080fd5b9086019061010082890312156200244957600080fd5b620024536200207f565b6200245e8362002190565b81526200246e6020840162001cb4565b60208201526200248160408401620021a1565b60408201526200249460608401620021a1565b6060820152620024a760808401620021b6565b6080820152620024ba60a0840162001b48565b60a082015260c083013560c082015260e083013582811115620024dc57600080fd5b620024ea8a828601620021cf565b60e083015250945060408701359150808211156200250757600080fd5b620025158883890162002264565b935060608701359150808211156200252c57600080fd5b506200253b878288016200230b565b91505092959194509250565b73ffffffffffffffffffffffffffffffffffffffff8416815260606020820152600062002578606083018562001d53565b82810360408401526200258c818562001d53565b9695505050505050565b73ffffffffffffffffffffffffffffffffffffffff8516815260006020608081840152620025c8608084018762001d53565b8381036040850152620025dc818762001d53565b90508381036060850152845160408252620025fb604083018262001d9f565b8684015183820393850193909352825180825290840192840191506000905b808210156200263c57825184529284019291840191600191909101906200261a565b50919998505050505050505050565b73ffffffffffffffffffffffffffffffffffffffff841681526060602082015260006200267c606083018562001d9f565b828103604084015261010084511515825261ffff60208601511660208301526040850151620026b3604084018263ffffffff169052565b506060850151620026cc606084018263ffffffff169052565b506080850151620026e9608084018267ffffffffffffffff169052565b5060a08501516200271260a084018273ffffffffffffffffffffffffffffffffffffffff169052565b5060c085015160c083015260e08501518160e0840152620027368284018262001d53565b98975050505050505050565b600082516200275681846020870162001d2d565b9190910192915050565b60007fffffffffffffffffffffffffffffffffffffffffffffffffffffffffffffffff8203620027b9577f4e487b7100000000000000000000000000000000000000000000000000000000600052601160045260246000fd5b5060010190565b73ffffffffffffffffffffffffffffffffffffffff83168152604060208201526000620017ca604083018462001d5356fe608060405260405161078438038061078483398101604081905261002291610319565b61002e82826000610035565b5050610436565b61003e8361006b565b60008251118061004b5750805b156100665761006483836100ab60201b6100291760201c565b505b505050565b610074816100d7565b6040516001600160a01b038216907fbc7cd75a20ee27fd9adebab32041f755214dbc6bffa90cc0225b39da2e5c2d3b90600090a250565b60606100d0838360405180606001604052806027815260200161075d602791396101a9565b9392505050565b6100ea8161022260201b6100551760201c565b6101515760405162461bcd60e51b815260206004820152602d60248201527f455243313936373a206e657720696d706c656d656e746174696f6e206973206e60448201526c1bdd08184818dbdb9d1c9858dd609a1b60648201526084015b60405180910390fd5b806101887f360894a13ba1a3210667c828492db98dca3e2076cc3735a920a3ca505d382bbc60001b61023160201b6100711760201c565b80546001600160a01b0319166001600160a01b039290921691909117905550565b6060600080856001600160a01b0316856040516101c691906103e7565b600060405180830381855af49150503d8060008114610201576040519150601f19603f3d011682016040523d82523d6000602084013e610206565b606091505b50909250905061021886838387610234565b9695505050505050565b6001600160a01b03163b151590565b90565b606083156102a357825160000361029c576001600160a01b0385163b61029c5760405162461bcd60e51b815260206004820152601d60248201527f416464726573733a2063616c6c20746f206e6f6e2d636f6e74726163740000006044820152606401610148565b50816102ad565b6102ad83836102b5565b949350505050565b8151156102c55781518083602001fd5b8060405162461bcd60e51b81526004016101489190610403565b634e487b7160e01b600052604160045260246000fd5b60005b838110156103105781810151838201526020016102f8565b50506000910152565b6000806040838503121561032c57600080fd5b82516001600160a01b038116811461034357600080fd5b60208401519092506001600160401b038082111561036057600080fd5b818501915085601f83011261037457600080fd5b815181811115610386576103866102df565b604051601f8201601f19908116603f011681019083821181831017156103ae576103ae6102df565b816040528281528860208487010111156103c757600080fd5b6103d88360208301602088016102f5565b80955050505050509250929050565b600082516103f98184602087016102f5565b9190910192915050565b60208152600082518060208401526104228160408501602087016102f5565b601f01601f19169190910160400192915050565b610318806104456000396000f3fe60806040523661001357610011610017565b005b6100115b610027610022610074565b6100b9565b565b606061004e83836040518060600160405280602781526020016102e5602791396100dd565b9392505050565b73ffffffffffffffffffffffffffffffffffffffff163b151590565b90565b60006100b47f360894a13ba1a3210667c828492db98dca3e2076cc3735a920a3ca505d382bbc5473ffffffffffffffffffffffffffffffffffffffff1690565b905090565b3660008037600080366000845af43d6000803e8080156100d8573d6000f35b3d6000fd5b60606000808573ffffffffffffffffffffffffffffffffffffffff16856040516101079190610277565b600060405180830381855af49150503d8060008114610142576040519150601f19603f3d011682016040523d82523d6000602084013e610147565b606091505b509150915061015886838387610162565b9695505050505050565b606083156101fd5782516000036101f65773ffffffffffffffffffffffffffffffffffffffff85163b6101f6576040517f08c379a000000000000000000000000000000000000000000000000000000000815260206004820152601d60248201527f416464726573733a2063616c6c20746f206e6f6e2d636f6e747261637400000060448201526064015b60405180910390fd5b5081610207565b610207838361020f565b949350505050565b81511561021f5781518083602001fd5b806040517f08c379a00000000000000000000000000000000000000000000000000000000081526004016101ed9190610293565b60005b8381101561026e578181015183820152602001610256565b50506000910152565b60008251610289818460208701610253565b9190910192915050565b60208152600082518060208401526102b2816040850160208701610253565b601f017fffffffffffffffffffffffffffffffffffffffffffffffffffffffffffffffe016919091016040019291505056fe416464726573733a206c6f772d6c6576656c2064656c65676174652063616c6c206661696c6564a164736f6c6343000811000a416464726573733a206c6f772d6c6576656c2064656c65676174652063616c6c206661696c6564a164736f6c6343000811000a60a0604052306080523480156200001557600080fd5b506200002062000026565b620000e7565b600054610100900460ff1615620000935760405162461bcd60e51b815260206004820152602760248201527f496e697469616c697a61626c653a20636f6e747261637420697320696e697469604482015266616c697a696e6760c81b606482015260840160405180910390fd5b60005460ff90811614620000e5576000805460ff191660ff9081179091556040519081527f7f26b83ff96e1f2b6a682f133852f6798a09c465da95921460cefb38474024989060200160405180910390a15b565b6080516153646200011f6000396000818161090b015281816109bb01528181610b6101528181610c110152610d5601526153646000f3fe6080604052600436106101ac5760003560e01c806368d35a65116100ec578063c7f758a81161008a578063e2c801b611610064578063e2c801b6146104e2578063e636d84b14610516578063f794062e14610536578063fada5c5b1461055657600080fd5b8063c7f758a814610466578063c9c4bfca14610499578063da35c664146104cd57600080fd5b8063849cbe9d116100c6578063849cbe9d146103e457806386f0e4ed14610404578063a1d4259314610426578063b1bb8d261461044657600080fd5b806368d35a65146103705780636a6b2d86146103a457806380317232146103c457600080fd5b80633659cfe61161015957806341de68301161013357806341de6830146103175780634f1ef2861461033357806352d1902d146103465780635c60da1b1461035b57600080fd5b80633659cfe61461028b57806339ac11ff146102ab5780634162169f146102cb57600080fd5b80630d61b5191161018a5780630d61b519146102285780630f525a261461024857806327f1608d1461026857600080fd5b806301ffc9a7146101b1578063038d6c9d146101e65780630d0d0bcd14610208575b600080fd5b3480156101bd57600080fd5b506101d16101cc3660046140ac565b610576565b60405190151581526020015b60405180910390f35b3480156101f257600080fd5b506102066102013660046143ff565b61066a565b005b34801561021457600080fd5b5061020661022336600461447b565b6108a0565b34801561023457600080fd5b506102066102433660046144ab565b6108ae565b34801561025457600080fd5b506102066102633660046144e8565b6108ba565b34801561027457600080fd5b5061027d6108c4565b6040519081526020016101dd565b34801561029757600080fd5b506102066102a63660046145fb565b6108f4565b3480156102b757600080fd5b506102066102c6366004614618565b610af6565b3480156102d757600080fd5b5060c95473ffffffffffffffffffffffffffffffffffffffff165b60405173ffffffffffffffffffffffffffffffffffffffff90911681526020016101dd565b34801561032357600080fd5b5060006040516101dd919061464d565b61020661034136600461468e565b610b4a565b34801561035257600080fd5b5061027d610d3c565b34801561036757600080fd5b506102f2610e29565b34801561037c57600080fd5b5061027d7ffab288b6b9cb53626ebb83c9311148c2be1def872412367cd65e82a9521b524281565b3480156103b057600080fd5b5061027d6103bf3660046144ab565b610e6e565b3480156103d057600080fd5b506102066103df3660046146de565b610e7c565b3480156103f057600080fd5b506102066103ff3660046146de565b610f70565b34801561041057600080fd5b50610419611081565b6040516101dd919061478e565b34801561043257600080fd5b5061027d610441366004614932565b6111f6565b34801561045257600080fd5b506101d1610461366004614a08565b6116da565b34801561047257600080fd5b506104866104813660046144ab565b611714565b6040516101dd9796959493929190614b7d565b3480156104a557600080fd5b5061027d7f821b6e3a557148015a918c89e5d092e878a69854a2d1a410635f771bd5a8a3f581565b3480156104d957600080fd5b5061027d611a0f565b3480156104ee57600080fd5b5061027d7f466d2da9531a54b43e3d2bf44c5531ee51046862cbec6aecc512537816c35efe81565b34801561052257600080fd5b506101d16105313660046145fb565b611a1b565b34801561054257600080fd5b506101d16105513660046145fb565b611a26565b34801561056257600080fd5b506101d16105713660046144ab565b611a7d565b60007fffffffff0000000000000000000000000000000000000000000000000000000082167fee289c8b00000000000000000000000000000000000000000000000000000000148061060957507fffffffff0000000000000000000000000000000000000000000000000000000082167feda5f01600000000000000000000000000000000000000000000000000000000145b8061065557507fffffffff0000000000000000000000000000000000000000000000000000000082167f0bb5c60300000000000000000000000000000000000000000000000000000000145b80610664575061066482611b1b565b92915050565b600054610100900460ff161580801561068a5750600054600160ff909116105b806106a45750303b1580156106a4575060005460ff166001145b610735576040517f08c379a000000000000000000000000000000000000000000000000000000000815260206004820152602e60248201527f496e697469616c697a61626c653a20636f6e747261637420697320616c72656160448201527f647920696e697469616c697a656400000000000000000000000000000000000060648201526084015b60405180910390fd5b600080547fffffffffffffffffffffffffffffffffffffffffffffffffffffffffffffff00166001179055801561079357600080547fffffffffffffffffffffffffffffffffffffffffffffffffffffffffffff00ff166101001790555b61079c85611b71565b61ffff8311156107e3576040517f125ae34000000000000000000000000000000000000000000000000000000000815261ffff60048201526024810184905260440161072c565b6107ed8484611c11565b83836040516107fd929190614c69565b604051908190038120907f1a88aae304f687af7ff0d4ff69a63f0093c5d391ca7fa344b896406980dd870390600090a261083682611d3a565b801561089957600080547fffffffffffffffffffffffffffffffffffffffffffffffffffffffffffff00ff169055604051600181527f7f26b83ff96e1f2b6a682f133852f6798a09c465da95921460cefb38474024989060200160405180910390a15b5050505050565b6108aa82826120db565b5050565b6108b781612215565b50565b6108aa82826122c9565b60006108d1610160612791565b7bffffffffffffffffffffffffffffffffffffffffffffffffffffffff16905090565b73ffffffffffffffffffffffffffffffffffffffff7f00000000000000000000000000000000000000000000000000000000000000001630036109b9576040517f08c379a000000000000000000000000000000000000000000000000000000000815260206004820152602c60248201527f46756e6374696f6e206d7573742062652063616c6c6564207468726f7567682060448201527f64656c656761746563616c6c0000000000000000000000000000000000000000606482015260840161072c565b7f000000000000000000000000000000000000000000000000000000000000000073ffffffffffffffffffffffffffffffffffffffff16610a2e7f360894a13ba1a3210667c828492db98dca3e2076cc3735a920a3ca505d382bbc5473ffffffffffffffffffffffffffffffffffffffff1690565b73ffffffffffffffffffffffffffffffffffffffff1614610ad1576040517f08c379a000000000000000000000000000000000000000000000000000000000815260206004820152602c60248201527f46756e6374696f6e206d7573742062652063616c6c6564207468726f7567682060448201527f6163746976652070726f78790000000000000000000000000000000000000000606482015260840161072c565b610ada816127ef565b604080516000808252602082019092526108b791839190612835565b60c9547f466d2da9531a54b43e3d2bf44c5531ee51046862cbec6aecc512537816c35efe90610b419073ffffffffffffffffffffffffffffffffffffffff1630335b84600036612a34565b6108aa82611d3a565b73ffffffffffffffffffffffffffffffffffffffff7f0000000000000000000000000000000000000000000000000000000000000000163003610c0f576040517f08c379a000000000000000000000000000000000000000000000000000000000815260206004820152602c60248201527f46756e6374696f6e206d7573742062652063616c6c6564207468726f7567682060448201527f64656c656761746563616c6c0000000000000000000000000000000000000000606482015260840161072c565b7f000000000000000000000000000000000000000000000000000000000000000073ffffffffffffffffffffffffffffffffffffffff16610c847f360894a13ba1a3210667c828492db98dca3e2076cc3735a920a3ca505d382bbc5473ffffffffffffffffffffffffffffffffffffffff1690565b73ffffffffffffffffffffffffffffffffffffffff1614610d27576040517f08c379a000000000000000000000000000000000000000000000000000000000815260206004820152602c60248201527f46756e6374696f6e206d7573742062652063616c6c6564207468726f7567682060448201527f6163746976652070726f78790000000000000000000000000000000000000000606482015260840161072c565b610d30826127ef565b6108aa82826001612835565b60003073ffffffffffffffffffffffffffffffffffffffff7f00000000000000000000000000000000000000000000000000000000000000001614610e03576040517f08c379a000000000000000000000000000000000000000000000000000000000815260206004820152603860248201527f555550535570677261646561626c653a206d757374206e6f742062652063616c60448201527f6c6564207468726f7567682064656c656761746563616c6c0000000000000000606482015260840161072c565b507f360894a13ba1a3210667c828492db98dca3e2076cc3735a920a3ca505d382bbc5b90565b6000610e697f360894a13ba1a3210667c828492db98dca3e2076cc3735a920a3ca505d382bbc5473ffffffffffffffffffffffffffffffffffffffff1690565b905090565b600061066461016083612b3c565b60c9547ffab288b6b9cb53626ebb83c9311148c2be1def872412367cd65e82a9521b524290610ec29073ffffffffffffffffffffffffffffffffffffffff163033610b38565b600082610ecd6108c4565b610ed79190614ce7565b905061ffff811115610f20576040517f125ae34000000000000000000000000000000000000000000000000000000000815261ffff60048201526024810182905260440161072c565b610f2a8484611c11565b8383604051610f3a929190614c69565b604051908190038120907f1a88aae304f687af7ff0d4ff69a63f0093c5d391ca7fa344b896406980dd870390600090a250505050565b60c9547ffab288b6b9cb53626ebb83c9311148c2be1def872412367cd65e82a9521b524290610fb69073ffffffffffffffffffffffffffffffffffffffff163033610b38565b600082610fc16108c4565b610fcb9190614cfa565b6101925490915061ffff6101009091048116908216101561103157610192546040517f2f621d5a00000000000000000000000000000000000000000000000000000000815261ffff8084166004830152610100909204909116602482015260440161072c565b61103b8484612c33565b838360405161104b929190614c69565b604051908190038120907feb65c42c0c383b4f607e60cb67a387bf8ac32dcd2dad8cc3effeb2f5965b8b1290600090a250505050565b604080516101008101825260008082526020820181905291810182905260608082018390526080820183905260a0820183905260c082019290925260e0810191909152604080516101008082018352610192805460ff81161515845291820461ffff1660208401526301000000820463ffffffff90811694840194909452670100000000000000820490931660608301526b010000000000000000000000900467ffffffffffffffff1660808201526101935473ffffffffffffffffffffffffffffffffffffffff1660a08201526101945460c0820152610195805491929160e08401919061116f90614d0d565b80601f016020809104026020016040519081016040528092919081815260200182805461119b90614d0d565b80156111e85780601f106111bd576101008083540402835291602001916111e8565b820191906000526020600020905b8154815290600101906020018083116111cb57829003601f168201915b505050505081525050905090565b6101925460009060ff168015611212575061121033612c9f565b155b1561126457335b6040517f67cc490600000000000000000000000000000000000000000000000000000000815273ffffffffffffffffffffffffffffffffffffffff909116600482015260240161072c565b61019454158015906113245750610194546101935473ffffffffffffffffffffffffffffffffffffffff16639ab24eb0336040517fffffffff0000000000000000000000000000000000000000000000000000000060e084901b16815273ffffffffffffffffffffffffffffffffffffffff9091166004820152602401602060405180830381865afa1580156112fe573d6000803e3d6000fd5b505050506040513d601f19601f820116820180604052508101906113229190614d60565b105b80156113de5750610194546101935473ffffffffffffffffffffffffffffffffffffffff166370a08231336040517fffffffff0000000000000000000000000000000000000000000000000000000060e084901b16815273ffffffffffffffffffffffffffffffffffffffff9091166004820152602401602060405180830381865afa1580156113b8573d6000803e3d6000fd5b505050506040513d601f19601f820116820180604052508101906113dc9190614d60565b105b1561141d57610194546040517f903c7204000000000000000000000000000000000000000000000000000000008152600481019190915260240161072c565b611434836040015184606001518560800151612caa565b67ffffffffffffffff90811660808701529081166060860152166040840152600061145d612e9c565b600081815261019160205260409081902060018082018a90559187015160038201805460608a015160808b015160048601805467ffffffffffffffff9283167fffffffffffffffffffffffffffffffffffffffffffffffff0000000000000000918216179091558c51821692821678010000000000000000000000000000000000000000000000000277ffffffffffffffffffffffffffffffffffffffffffffffff9290961670010000000000000000000000000000000002919091166fffffffffffffffffffffffffffffffff9093169290921793909317169190911790556002810188905591925061155043612eb7565b61155a9190614d79565b60038201805467ffffffffffffffff9290921668010000000000000000027fffffffffffffffffffffffffffffffff0000000000000000ffffffffffffffff90921691909117905560005b84518161ffff1610156116695781600701858261ffff16815181106115cc576115cc614da1565b602090810291909101810151825460018082018555600094855293839020825160039092020180547fffffffffffffffffffffffff00000000000000000000000000000000000000001673ffffffffffffffffffffffffffffffffffffffff9092169190911781559181015192820192909255604082015160028201906116539082614e16565b505050808061166190614f30565b9150506115a5565b503373ffffffffffffffffffffffffffffffffffffffff1687837f784842613a953948c527397436300b06839500577a2fe1e958cefafddc9f394f886040015189606001518a608001518a8d6040516116c6959493929190614f51565b60405180910390a45090505b949350505050565b73ffffffffffffffffffffffffffffffffffffffff8216600090815261015f6020526040812061170a9083612b3c565b6001149392505050565b6040805160a081018252600080825260208201819052918101829052606081810183905260808201839052908290600085815261019160209081526040808320805460068201805484518187028101870190955280855260ff9092169950606094859492908301828280156117bf57602002820191906000526020600020905b815473ffffffffffffffffffffffffffffffffffffffff168152600190910190602001808311611794575b5050505060018301546040805160a081018252600386015467ffffffffffffffff80821683526801000000000000000082048116602080850191909152700100000000000000000000000000000000830482168486015278010000000000000000000000000000000000000000000000009092048116606084015260048801541660808301526002870154600588018054855181850281018501909652808652979e50949c50919a50909850909391925060009084015b828210156118e2576000848152602090819020830180546040805182850281018501909152818152928301828280156118ce57602002820191906000526020600020905b8154815260200190600101908083116118ba575b505050505081526020019060010190611876565b50505050925080600701805480602002602001604051908101604052809291908181526020016000905b828210156119fd5760008481526020908190206040805160608101825260038602909201805473ffffffffffffffffffffffffffffffffffffffff1683526001810154938301939093526002830180549293929184019161196c90614d0d565b80601f016020809104026020016040519081016040528092919081815260200182805461199890614d0d565b80156119e55780601f106119ba576101008083540402835291602001916119e5565b820191906000526020600020905b8154815290600101906020018083116119c857829003601f168201915b5050505050815250508152602001906001019061190c565b50505050915050919395979092949650565b6000610e6961012d5490565b600061066482612c9f565b73ffffffffffffffffffffffffffffffffffffffff8116600090815261015f60205260408120611a5590612791565b7bffffffffffffffffffffffffffffffffffffffffffffffffffffffff166001149050919050565b600081815261019160205260408120815b600682015461ffff82161015611b11573373ffffffffffffffffffffffffffffffffffffffff16826006018261ffff1681548110611ace57611ace614da1565b60009182526020909120015473ffffffffffffffffffffffffffffffffffffffff1603611aff575060019392505050565b80611b0981614f30565b915050611a8e565b5060009392505050565b60007fffffffff0000000000000000000000000000000000000000000000000000000082167fda35c664000000000000000000000000000000000000000000000000000000001480610664575061066482612f55565b600054610100900460ff16611c08576040517f08c379a000000000000000000000000000000000000000000000000000000000815260206004820152602b60248201527f496e697469616c697a61626c653a20636f6e7472616374206973206e6f74206960448201527f6e697469616c697a696e67000000000000000000000000000000000000000000606482015260840161072c565b6108b781613038565b60005b81811015611d2457611c46838383818110611c3157611c31614da1565b905060200201602081019061055191906145fb565b15611cbd57828282818110611c5d57611c5d614da1565b9050602002016020810190611c7291906145fb565b6040517fc0b7477d00000000000000000000000000000000000000000000000000000000815273ffffffffffffffffffffffffffffffffffffffff909116600482015260240161072c565b611d1a600161015f6000868686818110611cd957611cd9614da1565b9050602002016020810190611cee91906145fb565b73ffffffffffffffffffffffffffffffffffffffff168152602081019190915260400160002090613116565b5050600101611c14565b50611d3461016061316183613165565b50505050565b611d486001620f4240614cfa565b61019254670100000000000000900463ffffffff161115611dc157611d716001620f4240614cfa565b610192546040517fcc80c1950000000000000000000000000000000000000000000000000000000081526004810192909252670100000000000000900463ffffffff16602482015260440161072c565b61019254620f4240630100000090910463ffffffff161115611e2b57610192546040517fcc80c195000000000000000000000000000000000000000000000000000000008152620f42406004820152630100000090910463ffffffff16602482015260440161072c565b610192546301e133806b01000000000000000000000090910467ffffffffffffffff161115611eaf57610192546040517fc51033ee0000000000000000000000000000000000000000000000000000000081526301e1338060048201526b01000000000000000000000090910467ffffffffffffffff16602482015260440161072c565b8051610192805460208401516040850151606086015160808701517fffffffffffffffffffffffffffffffffffffffffffffffffffffffffff0000009094169515157fffffffffffffffffffffffffffffffffffffffffffffffffffffffffff0000ff169590951761010061ffff90931692909202919091177fffffffffffffffffffffffffffffffffffffffffff0000000000000000ffffff16630100000063ffffffff928316027fffffffffffffffffffffffffffffffffffffffffff00000000ffffffffffffff16176701000000000000009190941602929092177fffffffffffffffffffffffffff0000000000000000ffffffffffffffffffffff166b01000000000000000000000067ffffffffffffffff9093169290920291909117815560a082015161019380547fffffffffffffffffffffffff00000000000000000000000000000000000000001673ffffffffffffffffffffffffffffffffffffffff90921691909117905560c08201516101945560e08201518291906101959061203b9082614e16565b505061019680547fffffffffffffffffffffffffffffffffffffffffffffffff0000000000000000164367ffffffffffffffff1617905550805160208201516080830151604080850151606086015160a087015160e088015160c089015194517f06d7ad97013d2d39753fe9b99ef2bd2516092d23267e591f549c6a4bfc78f1a2986120d09890979096909594939291614f98565b60405180910390a150565b6120e433612c9f565b6120ee5733611219565b600082815261019160205260408120600581015490910361214057806005016040517f71e9270800000000000000000000000000000000000000000000000000000000815260040161072c9190615016565b61214983611a7d565b1561219b576006810154610192546040517f1906bddf0000000000000000000000000000000000000000000000000000000081526004810192909252610100900461ffff16602482015260440161072c565b6006810180546001810182556000918252602082200180547fffffffffffffffffffffffff0000000000000000000000000000000000000000163317905560405184917f8ed92fb430e18e0bc33f2cac2e25c32d5806397bc5692f98896867d8bde13ff691a2811561221057612210836131b2565b505050565b60008181526101916020526040902061222d8161363e565b6122c05760038101546004808301546040517f1d3974ab00000000000000000000000000000000000000000000000000000000815267ffffffffffffffff700100000000000000000000000000000000850481169382019390935278010000000000000000000000000000000000000000000000009093048216602484015216604482015242606482015260840161072c565b6108aa826131b2565b6122d233612c9f565b6122dc5733611219565b60008281526101916020526040902060038101546101965467ffffffffffffffff680100000000000000009092048216911610612370576101965460038201546040517f4f3d100700000000000000000000000000000000000000000000000000000000815267ffffffffffffffff928316600482015268010000000000000000909104909116602482015260440161072c565b6123798161363e565b61240c5760038101546004808301546040517f1d3974ab00000000000000000000000000000000000000000000000000000000815267ffffffffffffffff700100000000000000000000000000000000850481169382019390935278010000000000000000000000000000000000000000000000009093048216602484015216604482015242606482015260840161072c565b815160011461244957816040517f71e9270800000000000000000000000000000000000000000000000000000000815260040161072c91906150c2565b8160008151811061245c5761245c614da1565b6020026020010151516003146124a057816040517f71e9270800000000000000000000000000000000000000000000000000000000815260040161072c91906150c2565b6005810154156126d25761019254600682015461010090910461ffff161161250f576006810154610192546040517f1906bddf0000000000000000000000000000000000000000000000000000000081526004810192909252610100900461ffff16602482015260440161072c565b8060050160008154811061252557612525614da1565b9060005260206000200160008154811061254157612541614da1565b90600052602060002001548260008151811061255f5761255f614da1565b602002602001015160008151811061257957612579614da1565b60200260200101511480156125fd57508060050160008154811061259f5761259f614da1565b906000526020600020016001815481106125bb576125bb614da1565b9060005260206000200154826000815181106125d9576125d9614da1565b60200260200101516001815181106125f3576125f3614da1565b6020026020010151145b801561267857508060050160008154811061261a5761261a614da1565b9060005260206000200160028154811061263657612636614da1565b90600052602060002001548260008151811061265457612654614da1565b602002602001015160028151811061266e5761266e614da1565b6020026020010151145b156126b157816040517f71e9270800000000000000000000000000000000000000000000000000000000815260040161072c91906150c2565b60408051600081526020810191829052516126d0916006840191613f42565b505b81516126e79060058301906020850190613fc8565b50600681018054600181018255600091825260209091200180547fffffffffffffffffffffffff0000000000000000000000000000000000000000163317905560405183907fb0441bed37ecf9efe628cbd58a2cff7c1289f751684f259fde3968a92f23107b906127599085906150c2565b60405180910390a260405183907f8ed92fb430e18e0bc33f2cac2e25c32d5806397bc5692f98896867d8bde13ff690600090a2505050565b805460009080156127e5576127b9836127ab600184614cfa565b600091825260209091200190565b5464010000000090047bffffffffffffffffffffffffffffffffffffffffffffffffffffffff166127e8565b60005b9392505050565b60c9547f821b6e3a557148015a918c89e5d092e878a69854a2d1a410635f771bd5a8a3f5906108aa9073ffffffffffffffffffffffffffffffffffffffff163033610b38565b7f4910fdfa16fed3260ed0e7147f7cc6da11a60208b5b9406d12a635614ffd91435460ff161561286857612210836136dc565b8273ffffffffffffffffffffffffffffffffffffffff166352d1902d6040518163ffffffff1660e01b8152600401602060405180830381865afa9250505080156128ed575060408051601f3d9081017fffffffffffffffffffffffffffffffffffffffffffffffffffffffffffffffe01682019092526128ea91810190614d60565b60015b612979576040517f08c379a000000000000000000000000000000000000000000000000000000000815260206004820152602e60248201527f45524331393637557067726164653a206e657720696d706c656d656e7461746960448201527f6f6e206973206e6f742055555053000000000000000000000000000000000000606482015260840161072c565b7f360894a13ba1a3210667c828492db98dca3e2076cc3735a920a3ca505d382bbc8114612a28576040517f08c379a000000000000000000000000000000000000000000000000000000000815260206004820152602960248201527f45524331393637557067726164653a20756e737570706f727465642070726f7860448201527f6961626c65555549440000000000000000000000000000000000000000000000606482015260840161072c565b506122108383836137e6565b6040517ffdef910600000000000000000000000000000000000000000000000000000000815273ffffffffffffffffffffffffffffffffffffffff87169063fdef910690612a8e90889088908890889088906004016150d5565b602060405180830381865afa158015612aab573d6000803e3d6000fd5b505050506040513d601f19601f82011682018060405250810190612acf9190615154565b612b34576040517f32dbe3b400000000000000000000000000000000000000000000000000000000815273ffffffffffffffffffffffffffffffffffffffff80881660048301528087166024830152851660448201526064810184905260840161072c565b505050505050565b6000438210612ba7576040517f08c379a000000000000000000000000000000000000000000000000000000000815260206004820181905260248201527f436865636b706f696e74733a20626c6f636b206e6f7420796574206d696e6564604482015260640161072c565b6000612bb28361380b565b84549091506000612bc5868483856138a1565b90508015612c0857612bdc866127ab600184614cfa565b5464010000000090047bffffffffffffffffffffffffffffffffffffffffffffffffffffffff16612c0b565b60005b7bffffffffffffffffffffffffffffffffffffffffffffffffffffffff169695505050505050565b60005b81811015612c8f57612c53838383818110611c3157611c31614da1565b612c6957828282818110611c5d57611c5d614da1565b612c85600061015f6000868686818110611cd957611cd9614da1565b5050600101612c36565b50611d346101606138ff83613165565b600061066482611a26565b600080600080612cb942612eb7565b90508667ffffffffffffffff16600003612cd557809350612d3a565b8693508067ffffffffffffffff168467ffffffffffffffff161015612d3a576040517f6a8ef97200000000000000000000000000000000000000000000000000000000815267ffffffffffffffff80831660048301528516602482015260440161072c565b61019254600090612d64906b010000000000000000000000900467ffffffffffffffff1686615171565b90508667ffffffffffffffff16600003612d8057809350612de5565b8693508067ffffffffffffffff168467ffffffffffffffff161015612de5576040517fad5724b200000000000000000000000000000000000000000000000000000000815267ffffffffffffffff80831660048301528516602482015260440161072c565b61019254600090612e0f906b010000000000000000000000900467ffffffffffffffff1686615171565b90508667ffffffffffffffff16600003612e2b57809350612e90565b8693508067ffffffffffffffff168467ffffffffffffffff161015612e90576040517faa600bb500000000000000000000000000000000000000000000000000000000815267ffffffffffffffff80831660048301528516602482015260440161072c565b50505093509350939050565b6000612ea6611a0f565b9050610e2661012d80546001019055565b600067ffffffffffffffff821115612f51576040517f08c379a000000000000000000000000000000000000000000000000000000000815260206004820152602660248201527f53616665436173743a2076616c756520646f65736e27742066697420696e203660448201527f3420626974730000000000000000000000000000000000000000000000000000606482015260840161072c565b5090565b60007fffffffff0000000000000000000000000000000000000000000000000000000082167f41de6830000000000000000000000000000000000000000000000000000000001480612fe857507fffffffff0000000000000000000000000000000000000000000000000000000082167f52d1902d00000000000000000000000000000000000000000000000000000000145b8061066457507f01ffc9a7000000000000000000000000000000000000000000000000000000007fffffffff00000000000000000000000000000000000000000000000000000000831614610664565b600054610100900460ff166130cf576040517f08c379a000000000000000000000000000000000000000000000000000000000815260206004820152602b60248201527f496e697469616c697a61626c653a20636f6e7472616374206973206e6f74206960448201527f6e697469616c697a696e67000000000000000000000000000000000000000000606482015260840161072c565b60c980547fffffffffffffffffffffffff00000000000000000000000000000000000000001673ffffffffffffffffffffffffffffffffffffffff92909216919091179055565b600080613134846131264361380b565b61312f86613904565b6139b2565b7bffffffffffffffffffffffffffffffffffffffffffffffffffffffff91821693501690505b9250929050565b0190565b6000806131a5856131a061317888612791565b7bffffffffffffffffffffffffffffffffffffffffffffffffffffffff16868863ffffffff16565b613116565b915091505b935093915050565b600081815261019160205260408120600581015490910361320457806005016040517f71e9270800000000000000000000000000000000000000000000000000000000815260040161072c9190615016565b61019254600682015461010090910461ffff16111561327a5761019254600682015461010090910461ffff169061323a90613bc3565b6040517fb5d6b86700000000000000000000000000000000000000000000000000000000815261ffff92831660048201529116602482015260440161072c565b60008160050160008154811061329257613292614da1565b906000526020600020016002815481106132ae576132ae614da1565b9060005260206000200154826005016000815481106132cf576132cf614da1565b906000526020600020016001815481106132eb576132eb614da1565b90600052602060002001548360050160008154811061330c5761330c614da1565b9060005260206000200160008154811061332857613328614da1565b906000526020600020015461333d9190614ce7565b6133479190614ce7565b610192549091506301000000900463ffffffff168110156133ae57610192546040517f6a210adb00000000000000000000000000000000000000000000000000000000815260048101839052630100000090910463ffffffff16602482015260440161072c565b6000826005016000815481106133c6576133c6614da1565b906000526020600020016000815481106133e2576133e2614da1565b6000918252602090912001546101925461341090670100000000000000900463ffffffff16620f4240614cfa565b61341a9190615192565b90508260050160008154811061343257613432614da1565b9060005260206000200160018154811061344e5761344e614da1565b600091825260209091200154610192546134799190670100000000000000900463ffffffff16615192565b81116134cf57610192546040517ffb47ec080000000000000000000000000000000000000000000000000000000081526004810183905267010000000000000090910463ffffffff16602482015260440161072c565b82547fffffffffffffffffffffffffffffffffffffffffffffffffffffffffffffff00166001178355612b3461351a60c95473ffffffffffffffffffffffffffffffffffffffff1690565b8585600701805480602002602001604051908101604052809291908181526020016000905b828210156136305760008481526020908190206040805160608101825260038602909201805473ffffffffffffffffffffffffffffffffffffffff1683526001810154938301939093526002830180549293929184019161359f90614d0d565b80601f01602080910402602001604051908101604052809291908181526020018280546135cb90614d0d565b80156136185780601f106135ed57610100808354040283529160200191613618565b820191906000526020600020905b8154815290600101906020018083116135fb57829003601f168201915b5050505050815250508152602001906001019061353f565b505050508660020154613c57565b6003810154600090429067ffffffffffffffff808316700100000000000000000000000000000000909204161080156136a45750600383015467ffffffffffffffff80831678010000000000000000000000000000000000000000000000009092041611155b80156136c05750600483015467ffffffffffffffff8083169116115b80156136ce5750825460ff16155b156127e55750600192915050565b73ffffffffffffffffffffffffffffffffffffffff81163b613780576040517f08c379a000000000000000000000000000000000000000000000000000000000815260206004820152602d60248201527f455243313936373a206e657720696d706c656d656e746174696f6e206973206e60448201527f6f74206120636f6e747261637400000000000000000000000000000000000000606482015260840161072c565b7f360894a13ba1a3210667c828492db98dca3e2076cc3735a920a3ca505d382bbc80547fffffffffffffffffffffffff00000000000000000000000000000000000000001673ffffffffffffffffffffffffffffffffffffffff92909216919091179055565b6137ef83613d51565b6000825111806137fc5750805b1561221057611d348383613d9e565b600063ffffffff821115612f51576040517f08c379a000000000000000000000000000000000000000000000000000000000815260206004820152602660248201527f53616665436173743a2076616c756520646f65736e27742066697420696e203360448201527f3220626974730000000000000000000000000000000000000000000000000000606482015260840161072c565b60005b818310156138f75760006138b88484613dc3565b60008781526020902090915063ffffffff86169082015463ffffffff1611156138e3578092506138f1565b6138ee816001614ce7565b93505b506138a4565b509392505050565b900390565b60007bffffffffffffffffffffffffffffffffffffffffffffffffffffffff821115612f51576040517f08c379a000000000000000000000000000000000000000000000000000000000815260206004820152602760248201527f53616665436173743a2076616c756520646f65736e27742066697420696e203260448201527f3234206269747300000000000000000000000000000000000000000000000000606482015260840161072c565b825460009081908015613b545760006139d0876127ab600185614cfa565b60408051808201909152905463ffffffff8082168084526401000000009092047bffffffffffffffffffffffffffffffffffffffffffffffffffffffff1660208401529192509087161015613a81576040517f08c379a000000000000000000000000000000000000000000000000000000000815260206004820152601b60248201527f436865636b706f696e743a2064656372656173696e67206b6579730000000000604482015260640161072c565b805163ffffffff808816911603613adf5784613aa2886127ab600186614cfa565b80547bffffffffffffffffffffffffffffffffffffffffffffffffffffffff929092166401000000000263ffffffff909216919091179055613b44565b6040805180820190915263ffffffff80881682527bffffffffffffffffffffffffffffffffffffffffffffffffffffffff80881660208085019182528b54600181018d5560008d81529190912094519151909216640100000000029216919091179101555b6020015192508391506131aa9050565b50506040805180820190915263ffffffff80851682527bffffffffffffffffffffffffffffffffffffffffffffffffffffffff80851660208085019182528854600181018a5560008a8152918220955192519093166401000000000291909316179201919091559050816131aa565b600061ffff821115612f51576040517f08c379a000000000000000000000000000000000000000000000000000000000815260206004820152602660248201527f53616665436173743a2076616c756520646f65736e27742066697420696e203160448201527f3620626974730000000000000000000000000000000000000000000000000000606482015260840161072c565b6040517fc71bf32400000000000000000000000000000000000000000000000000000000815260609060009073ffffffffffffffffffffffffffffffffffffffff87169063c71bf32490613cb3908890889088906004016151a9565b6000604051808303816000875af1158015613cd2573d6000803e3d6000fd5b505050506040513d6000823e601f3d9081017fffffffffffffffffffffffffffffffffffffffffffffffffffffffffffffffe0168201604052613d1891908101906151d2565b604051919350915085907f712ae1383f79ac853f8d882153778e0260ef8f03b504e2866e0593e04d2b291f90600090a294509492505050565b613d5a816136dc565b60405173ffffffffffffffffffffffffffffffffffffffff8216907fbc7cd75a20ee27fd9adebab32041f755214dbc6bffa90cc0225b39da2e5c2d3b90600090a250565b60606127e8838360405180606001604052806027815260200161533160279139613dde565b6000613dd260028484186152c6565b6127e890848416614ce7565b60606000808573ffffffffffffffffffffffffffffffffffffffff1685604051613e089190615301565b600060405180830381855af49150503d8060008114613e43576040519150601f19603f3d011682016040523d82523d6000602084013e613e48565b606091505b5091509150613e5986838387613e63565b9695505050505050565b60608315613ef9578251600003613ef25773ffffffffffffffffffffffffffffffffffffffff85163b613ef2576040517f08c379a000000000000000000000000000000000000000000000000000000000815260206004820152601d60248201527f416464726573733a2063616c6c20746f206e6f6e2d636f6e7472616374000000604482015260640161072c565b50816116d2565b6116d28383815115613f0e5781518083602001fd5b806040517f08c379a000000000000000000000000000000000000000000000000000000000815260040161072c919061531d565b828054828255906000526020600020908101928215613fbc579160200282015b82811115613fbc57825182547fffffffffffffffffffffffff00000000000000000000000000000000000000001673ffffffffffffffffffffffffffffffffffffffff909116178255602090920191600190910190613f62565b50612f51929150614021565b828054828255906000526020600020908101928215614015579160200282015b828111156140155782518051614005918491602090910190614036565b5091602001919060010190613fe8565b50612f51929150614071565b5b80821115612f515760008155600101614022565b828054828255906000526020600020908101928215613fbc579160200282015b82811115613fbc578251825591602001919060010190614056565b80821115612f51576000614085828261408e565b50600101614071565b50805460008255906000526020600020908101906108b79190614021565b6000602082840312156140be57600080fd5b81357fffffffff00000000000000000000000000000000000000000000000000000000811681146127e857600080fd5b73ffffffffffffffffffffffffffffffffffffffff811681146108b757600080fd5b60008083601f84011261412257600080fd5b50813567ffffffffffffffff81111561413a57600080fd5b6020830191508360208260051b850101111561315a57600080fd5b7f4e487b7100000000000000000000000000000000000000000000000000000000600052604160045260246000fd5b604051610100810167ffffffffffffffff811182821017156141a8576141a8614155565b60405290565b6040516060810167ffffffffffffffff811182821017156141a8576141a8614155565b60405160a0810167ffffffffffffffff811182821017156141a8576141a8614155565b604051601f82017fffffffffffffffffffffffffffffffffffffffffffffffffffffffffffffffe016810167ffffffffffffffff8111828210171561423b5761423b614155565b604052919050565b80151581146108b757600080fd5b803561425c81614243565b919050565b803561ffff8116811461425c57600080fd5b803563ffffffff8116811461425c57600080fd5b803567ffffffffffffffff8116811461425c57600080fd5b803561425c816140ee565b600067ffffffffffffffff8211156142c4576142c4614155565b50601f017fffffffffffffffffffffffffffffffffffffffffffffffffffffffffffffffe01660200190565b600082601f83011261430157600080fd5b813561431461430f826142aa565b6141f4565b81815284602083860101111561432957600080fd5b816020850160208301376000918101602001919091529392505050565b6000610100828403121561435957600080fd5b614361614184565b905061436c82614251565b815261437a60208301614261565b602082015261438b60408301614273565b604082015261439c60608301614273565b60608201526143ad60808301614287565b60808201526143be60a0830161429f565b60a082015260c082013560c082015260e082013567ffffffffffffffff8111156143e757600080fd5b6143f3848285016142f0565b60e08301525092915050565b6000806000806060858703121561441557600080fd5b8435614420816140ee565b9350602085013567ffffffffffffffff8082111561443d57600080fd5b61444988838901614110565b9095509350604087013591508082111561446257600080fd5b5061446f87828801614346565b91505092959194509250565b6000806040838503121561448e57600080fd5b8235915060208301356144a081614243565b809150509250929050565b6000602082840312156144bd57600080fd5b5035919050565b600067ffffffffffffffff8211156144de576144de614155565b5060051b60200190565b60008060408084860312156144fc57600080fd5b8335925060208085013567ffffffffffffffff8082111561451c57600080fd5b818701915087601f83011261453057600080fd5b813561453e61430f826144c4565b81815260059190911b8301840190848101908a83111561455d57600080fd5b8585015b838110156145e9578035858111156145795760008081fd5b8601603f81018d1361458b5760008081fd5b8781013561459b61430f826144c4565b81815260059190911b82018a0190898101908f8311156145bb5760008081fd5b928b01925b828410156145d95783358252928a0192908a01906145c0565b8652505050918601918601614561565b50809750505050505050509250929050565b60006020828403121561460d57600080fd5b81356127e8816140ee565b60006020828403121561462a57600080fd5b813567ffffffffffffffff81111561464157600080fd5b6116d284828501614346565b6020810160038310614688577f4e487b7100000000000000000000000000000000000000000000000000000000600052602160045260246000fd5b91905290565b600080604083850312156146a157600080fd5b82356146ac816140ee565b9150602083013567ffffffffffffffff8111156146c857600080fd5b6146d4858286016142f0565b9150509250929050565b600080602083850312156146f157600080fd5b823567ffffffffffffffff81111561470857600080fd5b61471485828601614110565b90969095509350505050565b60005b8381101561473b578181015183820152602001614723565b50506000910152565b6000815180845261475c816020860160208601614720565b601f017fffffffffffffffffffffffffffffffffffffffffffffffffffffffffffffffe0169290920160200192915050565b6020815281511515602082015261ffff6020830151166040820152600060408301516147c2606084018263ffffffff169052565b50606083015163ffffffff8116608084015250608083015167ffffffffffffffff811660a08401525060a083015173ffffffffffffffffffffffffffffffffffffffff811660c08401525060c083015160e083015260e08301516101008081850152506116d2610120840182614744565b600082601f83011261484457600080fd5b8135602061485461430f836144c4565b82815260059290921b8401810191818101908684111561487357600080fd5b8286015b8481101561492757803567ffffffffffffffff808211156148985760008081fd5b81890191506060807fffffffffffffffffffffffffffffffffffffffffffffffffffffffffffffffe0848d030112156148d15760008081fd5b6148d96141ae565b878401356148e6816140ee565b8152604084810135898301529184013591838311156149055760008081fd5b6149138d8a858801016142f0565b908201528652505050918301918301614877565b509695505050505050565b60008060008084860361010081121561494a57600080fd5b853594506020860135935060a07fffffffffffffffffffffffffffffffffffffffffffffffffffffffffffffffc08201121561498557600080fd5b5061498e6141d1565b61499a60408701614287565b81526149a860608701614287565b60208201526149b960808701614287565b60408201526149ca60a08701614287565b60608201526149db60c08701614287565b6080820152915060e085013567ffffffffffffffff8111156149fc57600080fd5b61446f87828801614833565b60008060408385031215614a1b57600080fd5b8235614a26816140ee565b946020939093013593505050565b600082825180855260208086019550808260051b8401018186016000805b85811015614ac3578684037fffffffffffffffffffffffffffffffffffffffffffffffffffffffffffffffe0018a52825180518086529086019086860190845b81811015614aae57835183529288019291880191600101614a92565b50509a86019a94505091840191600101614a52565b509198975050505050505050565b600082825180855260208086019550808260051b84010181860160005b84811015614b70578583037fffffffffffffffffffffffffffffffffffffffffffffffffffffffffffffffe00189528151805173ffffffffffffffffffffffffffffffffffffffff1684528481015185850152604090810151606091850182905290614b5c81860183614744565b9a86019a9450505090830190600101614aee565b5090979650505050505050565b8715158152610160602080830182905288519183018290526000916101808401918a810191845b81811015614bd657835173ffffffffffffffffffffffffffffffffffffffff1685529382019392820192600101614ba4565b50505050876040840152614c2c606084018867ffffffffffffffff808251168352806020830151166020840152806040830151166040840152806060830151166060840152806080830151166080840152505050565b85610100840152828103610120840152614c468186614a34565b9050828103610140840152614c5b8185614ad1565b9a9950505050505050505050565b60008184825b85811015614cad578135614c82816140ee565b73ffffffffffffffffffffffffffffffffffffffff1683526020928301929190910190600101614c6f565b509095945050505050565b7f4e487b7100000000000000000000000000000000000000000000000000000000600052601160045260246000fd5b8082018082111561066457610664614cb8565b8181038181111561066457610664614cb8565b600181811c90821680614d2157607f821691505b602082108103614d5a577f4e487b7100000000000000000000000000000000000000000000000000000000600052602260045260246000fd5b50919050565b600060208284031215614d7257600080fd5b5051919050565b67ffffffffffffffff828116828216039080821115614d9a57614d9a614cb8565b5092915050565b7f4e487b7100000000000000000000000000000000000000000000000000000000600052603260045260246000fd5b601f82111561221057600081815260208120601f850160051c81016020861015614df75750805b601f850160051c820191505b81811015612b3457828155600101614e03565b815167ffffffffffffffff811115614e3057614e30614155565b614e4481614e3e8454614d0d565b84614dd0565b602080601f831160018114614e975760008415614e615750858301515b7fffffffffffffffffffffffffffffffffffffffffffffffffffffffffffffffff600386901b1c1916600185901b178555612b34565b6000858152602081207fffffffffffffffffffffffffffffffffffffffffffffffffffffffffffffffe08616915b82811015614ee457888601518255948401946001909101908401614ec5565b5085821015614f2057878501517fffffffffffffffffffffffffffffffffffffffffffffffffffffffffffffffff600388901b60f8161c191681555b5050505050600190811b01905550565b600061ffff808316818103614f4757614f47614cb8565b6001019392505050565b600067ffffffffffffffff8088168352808716602084015280861660408401525060a06060830152614f8660a0830185614ad1565b90508260808301529695505050505050565b60006101008a1515835261ffff8a16602084015267ffffffffffffffff8916604084015263ffffffff808916606085015280881660808501525073ffffffffffffffffffffffffffffffffffffffff861660a08401528060c084015261500081840186614744565b9150508260e08301529998505050505050505050565b6000602080830181845280855480835260408601915060408160051b87010192506000878152848120815b838110156150b4578886037fffffffffffffffffffffffffffffffffffffffffffffffffffffffffffffffc001855281548087528284528784208888019190855b8281101561509e5781548452928a019260019182019101615082565b5091975050509386019360019182019101615041565b509398975050505050505050565b6020815260006127e86020830184614a34565b600073ffffffffffffffffffffffffffffffffffffffff808816835280871660208401525084604083015260806060830152826080830152828460a0840137600060a0848401015260a07fffffffffffffffffffffffffffffffffffffffffffffffffffffffffffffffe0601f85011683010190509695505050505050565b60006020828403121561516657600080fd5b81516127e881614243565b67ffffffffffffffff818116838216019080821115614d9a57614d9a614cb8565b808202811582820484141761066457610664614cb8565b8381526060602082015260006151c26060830185614ad1565b9050826040830152949350505050565b60008060408084860312156151e657600080fd5b835167ffffffffffffffff808211156151fe57600080fd5b818601915086601f83011261521257600080fd5b8151602061522261430f836144c4565b82815260059290921b8401810191818101908a84111561524157600080fd5b8286015b848110156152b25780518681111561525d5760008081fd5b8701603f81018d1361526f5760008081fd5b8481015161527f61430f826142aa565b8181528e8b8385010111156152945760008081fd5b6152a3828883018d8601614720565b85525050918301918301615245565b509890910151979997985050505050505050565b6000826152fc577f4e487b7100000000000000000000000000000000000000000000000000000000600052601260045260246000fd5b500490565b60008251615313818460208701614720565b9190910192915050565b6020815260006127e8602083018461474456fe416464726573733a206c6f772d6c6576656c2064656c65676174652063616c6c206661696c6564a164736f6c6343000811000a",
  "devdoc": {
    "author": "Vocdoni",
    "errors": {
      "TokenNotContract(address)": [
        {
          "params": {
            "token": "The token address"
          }
        }
      ],
      "TokenNotERC20(address)": [
        {
          "params": {
            "token": "The token address"
          }
        }
      ],
      "WrongHelpersArrayLength(uint256)": [
        {
          "params": {
            "length": "The array length of passed helpers."
          }
        }
      ]
    },
    "kind": "dev",
    "methods": {
      "implementation()": {
        "details": "The implementation can be instantiated via the `new` keyword, cloned via the minimal clones pattern (see [ERC-1167](https://eips.ethereum.org/EIPS/eip-1167)), or proxied via the UUPS pattern (see [ERC-1822](https://eips.ethereum.org/EIPS/eip-1822)).",
        "returns": {
          "_0": "The address of the plugin implementation contract."
        }
      },
      "prepareInstallation(address,bytes)": {
        "params": {
          "_dao": "The address of the installing DAO.",
          "_data": "The bytes-encoded data containing the input parameters for the installation as specified in the plugin's build metadata JSON file."
        },
        "returns": {
          "plugin": "The address of the `Plugin` contract being prepared for installation.",
          "preparedSetupData": "The deployed plugin's relevant data which consists of helpers and permissions."
        }
      },
      "prepareUninstallation(address,(address,address[],bytes))": {
        "params": {
          "_dao": "The address of the uninstalling DAO.",
          "_payload": "The relevant data necessary for the `prepareUninstallation`. See above."
        },
        "returns": {
          "permissions": "The array of multi-targeted permission operations to be applied by the `PluginSetupProcessor` to the uninstalling DAO."
        }
      },
      "prepareUpdate(address,uint16,(address,address[],bytes))": {
        "params": {
          "_currentBuild": "The build number of the plugin to update from.",
          "_dao": "The address of the updating DAO.",
          "_payload": "The relevant data necessary for the `prepareUpdate`. See above."
        },
        "returns": {
          "initData": "The initialization data to be passed to upgradeable contracts when the update is applied in the `PluginSetupProcessor`.",
          "preparedSetupData": "The deployed plugin's relevant data which consists of helpers and permissions."
        }
      },
      "supportsInterface(bytes4)": {
        "params": {
          "_interfaceId": "The ID of the interface."
        },
        "returns": {
          "_0": "Returns `true` if the interface is supported."
        }
      }
    },
    "title": "VocdoniVotingSetup",
    "version": 1
  },
  "userdoc": {
    "errors": {
      "TokenNotContract(address)": [
        {
          "notice": "Thrown if token address is passed which is not a token."
        }
      ],
      "TokenNotERC20(address)": [
        {
          "notice": "Thrown if token address is not ERC20."
        }
      ],
      "WrongHelpersArrayLength(uint256)": [
        {
          "notice": "Thrown if passed helpers array is of wrong length."
        }
      ]
    },
    "kind": "user",
    "methods": {
      "constructor": {
        "notice": "The contract constructor, that deploys the `VocdoniVoting` plugin logic contract."
      },
      "governanceERC20Base()": {
        "notice": "The address of the `GovernanceERC20` base contract."
      },
      "governanceWrappedERC20Base()": {
        "notice": "The address of the `GovernanceWrappedERC20` base contract."
      },
      "implementation()": {
        "notice": "Returns the plugin implementation address."
      },
      "prepareInstallation(address,bytes)": {
        "notice": "Prepares the installation of a plugin."
      },
      "prepareUninstallation(address,(address,address[],bytes))": {
        "notice": "Prepares the uninstallation of a plugin."
      },
      "prepareUpdate(address,uint16,(address,address[],bytes))": {
        "notice": "Prepares the update of a plugin."
      },
      "supportsInterface(bytes4)": {
        "notice": "Checks if this or the parent contract supports an interface by its ID."
      }
    },
    "notice": "The setup contract of the `VocdoniVoting` plugin.",
    "version": 1
  },
  "storageLayout": {
    "storage": [],
    "types": null
  }
}